:020000040800F2
:10000000084D0020A90200084B3D0008B935000842
:10001000493D00088D0900086548000800000000FF
:10002000000000000000000000000000ED010008DA
:10003000010B0008000000004102000819410008FF
:10004000C3020008C3020008C3020008C30200087C
:10005000C3020008C3020008C3020008C30200086C
:10006000C3020008C3020008C3020008C50A000852
:10007000D10A0008C3020008C3020008C302000836
:10008000DD0A0008C3020008C3020008C30200081A
:1000900091090008C3020008C3020008C302000857
:1000A000C3020008C3020008C3020008C30200081C
:1000B000C3020008C302000811420008C30200087E
:1000C000C3020008C3020008C3020008C3020008FC
:1000D000C3020008E9470008254800083148000825
:1000E000C3020008C3020008C3020008C3020008DC
:1000F000C3020008C3020008C3020008C3020008CC
:10010000C3020008C3020008C3020008C3020008BB
:10011000C3020008E1420008C3020008C30200084D
:10012000E90A0008C3020008F50A0008C302000833
:10013000C3020008C3020008C3020008C30200088B
:10014000C30200089D090008C3020008C30200089A
:10015000C3020008C3020008C3020008C30200086B
:10016000C3020008C3020008C3020008A90900086E
:10017000C3020008C30200080000000000000000E5
:10018000C3020008C3020008C3020008C30200083B
:10019000C3020008C302000800000000C3020008F8
:1001A000C3020008C30200080000000000000000B5
:1001B000C30200080000000000000000C3020008A5
:1001C000C3020008C3020008C3020008C3020008FB
:1001D000C3020008C3020008DFF80CD000F094FB53
:1001E0000048004725540008084D00202B4B196893
:1001F0000868B0E8F04F80F30988BFF36F8F4FF0C5
:10020000000080F311887047000000000648006875
:10021000006880F3088862B661B6BFF34F8FBFF302
:100220006F8F00DF00BF00BF08ED00E0DFF80C00BB
:10023000016841F470010160704700BF88ED00E083
:10024000EFF30980BFF36F8F144B1A681EF0100F85
:1002500008BF20ED108A20E9F04F106008B44FF07D
:10026000500080F31188BFF34F8FBFF36F8F05F0FD
:1002700013FD4FF0000080F3118808BC196808686E
:10028000B0E8F04F1EF0100F08BFB0EC108A80F3FA
:100290000988BFF36F8F704700BF00BFC800002000
:1002A000EFF3058070470000064880470648004786
:1002B000FEE7FEE7FEE7FEE7FEE7FEE7FEE7FEE716
:1002C000FEE7FEE7B9410008D90100082DE9F05F1B
:1002D0000546002092469B468846064681464024B5
:1002E0001BE0284641464746224600F005FA5346A1
:1002F0005A46C01A914110D311461846224600F0C2
:10030000ECF92D1A67EB01084F4622460120002127
:1003100000F0E3F917EB00094E41201EA4F101049F
:10032000DFDC484631462A464346BDE8F09F40EAB6
:1003300001039B0703D009E008C9121F08C0042A63
:10034000FAD203E011F8013B00F8013B521EF9D24A
:1003500070472DE9FE4F804681EA0300C00F0C462E
:10036000009021F0004123F00045B8EB0200A941C4
:1003700005D24046214690461C460B46024623F0D5
:100380000040104347D0270DC7F30A00C3F30A51BA
:100390000290401A019040286BDAC3F3130040F436
:1003A000801B0098924620B10023D2EB030A63EB36
:1003B0000B0B01985946C0F14002504600F08DF9F0
:1003C00006460D4650465946019A00F0A5F910EB35
:1003D00008006141002487EA115284EAE7731A4356
:1003E00040D0009A62B3019A012A4FEA075215DC05
:1003F000001B61EB02014FF0004202EA0752CDE917
:100400000042001C41F5801132462B4600F0DCF919
:1004100003B0BDE8F08F40462146F9E7001B61EBD1
:100420000201001C41F5801300185B412018A2F561
:10043000001747EB030140EAD570B6196D4111E092
:100440006D084FEA360645EAC0754FEA0752001BB1
:1004500061EB0201001C41F5801149084FEA3000B0
:100460000019514132462B4603B0BDE8F04F00F071
:100470009CB90098012240000023D0EB020263EBFC
:10048000E073009821464FEAE074B8EB000061EB9E
:100490000401E9E783F000435BE781F0004158E79E
:1004A0002DE9FE4F81EA030404F0004421F00041ED
:1004B00000944FF0000B23F0004350EA01045ED09B
:1004C00052EA03045BD0C3F30A54C1F30A552C4427
:1004D000A4F2F3340194A0FB0254C1F3130141F4DC
:1004E0008011C3F3130343F4801301FB024400FBA8
:1004F000034E840A970A44EA815447EA8357A4FBCF
:10050000076802958D0A05FB07854FEA932C04FBCB
:100510000C542705029D4FEA065847EA1637B5EBFB
:1005200008056EEB070C870E920E47EA811742EA28
:100530008312A7FB0201B6EB0B0164EB00042B0D49
:1005400043EA0C335E1844EB1C50DA465146E7FB95
:100550000201C5F313044FEA0B3343EA14534FEA85
:100560000432019C43EA0603A4F10C040294009CAB
:10057000CDE900B400F028F903B0BDE8F08F002009
:100580000146F9E72DE9F04D81EA030404F0004B40
:1005900021F0004514464FF0000A23F0004150EAD4
:1005A000050220D054EA01021DD0C5F30A570246C5
:1005B000C5F31303C1F31300C1F30A5640F48015C9
:1005C00043F48013A7EB0608101BD64608F2FD384B
:1005D00073EB050002D308F1010801E092185B41BA
:1005E000B8F1000F03DA00200146BDE8F08D0020CD
:1005F0004FF48011064684460EE0171B73EB050787
:1006000005D3121B63EB050306434CEA010C4908B2
:100610004FEA300092185B4150EA0107EDD152EAEF
:10062000030012D082EA040083EA0501084305D0E2
:10063000101BAB4106D20122002306E000224FF03E
:10064000004302E06FF0010253101AEB06004CEB7E
:10065000085110EB0A0041EB0B01BDE8F04D00F032
:10066000A4B80EB540F2334102910021CDE900114A
:100670000A460B4600F0A8F803B000BD00F00042A7
:1006800030F000400AD0C10D01F56071C0F31600D2
:1006900042EA0151C2084007114370470020014659
:1006A000704701F0004330B421F0004150EA0102EC
:1006B00006D00A0DA2F56072C1F31301002A02DC14
:1006C00030BC00207047440F44EAC104C100E01868
:1006D00030BC00EBC25000F031B8202A04DB203AD5
:1006E00000FA02F1002070479140C2F1200320FA85
:1006F00003F3194390407047202A04DB203A21FA83
:1007000002F00021704721FA02F3D040C2F120022A
:100710009140084319467047202A06DBCB17203A40
:1007200041FA02F043EAE07306E041FA02F3D040F6
:10073000C2F1200291400843194670470029A8BF22
:100740007047401C490008BF20F00100704710B4FA
:10075000B0FA80FC00FA0CF050EA010404BF10BCAF
:10076000704749B1CCF1200421FA04F411FA0CF1DC
:1007700018BF012121430843A3EB0C01CB1D4FEA15
:1007800000614FEA102042BF002010BC704700EB10
:10079000C35010440029A4BF10BC7047401C49003E
:1007A00008BF20F0010010BC704710B5141E73F193
:1007B000000408DA401C41F1000192185B411A4321
:1007C00001D120F0010010BD2DE9F04D92469B466D
:1007D00011B1B1FA81F202E0B0FA80F22032904613
:1007E000FFF77BFF04460F4640EA0A0041EA0B018F
:1007F00053465A46084313D0114653EA010019D014
:10080000C8F140025046FFF777FF05460E465046B6
:1008100059464246FFF761FF084305D0012004E036
:1008200020463946BDE8F08D0020054346EAE076D3
:100830002C4337430A986305E40AA0EB0800002222
:10084000FD0A44EA47540A3002D500200146E9E790
:10085000010510196941DDE9084500196941BDE844
:10086000F04DA2E72DE9F04D00231A461B1A8A41EC
:1008700003DB00200146BDE8F08DC1F30A52C1F34D
:10088000130141F480154FF0000BD10702D100187D
:100890006D41521E0027044640F2FF11384601EB1D
:1008A000620A3E468046024600204FF48011FFF760
:1008B00023FFC2197141BB1846EB0100B4EB030CD6
:1008C00075EB000C04D3E41A65EB000517460E46E1
:1008D000241908F101006D4180463428E3DDF9193F
:1008E00046EB0600091BA84103D24FF0FF32134626
:1008F00001E0002213461BEB070046EB0A51BDE85E
:10090000F04DFFF752BF0000064C074D06E0E068CF
:1009100040F0010394E8070098471034AC42F6D346
:10092000FFF75EFC886B0008A86B00080EB5C10FCE
:1009300080EAE0700844CA07002140F233438DE8A2
:100940000E000A460B46FFF73FFF03B000BD70B52F
:10095000C1F30A5201F000450024C1F3130140F233
:10096000FF3341F480119A4201DA002070BD40F259
:1009700033439A42A2F2334203DC5242FFF7BCFEF9
:1009800000E090402C43F1D0404270BDFEE70000F3
:10099000014800F025BE00009C0B0020014800F03B
:1009A0001FBE0000C40B0020014800F019BE00006B
:1009B000EC0B00200000000010B5044608784B281E
:1009C00004BF4878592807D188784B2801BFC878D8
:1009D0004A280879772801D0012010BD8879C009FC
:1009E00020708879C0F3801060708879C0F340105F
:1009F000A0708879C0F30010E0708879C0F3C0005F
:100A00002071887900F001006072C87980096071F6
:100A1000C879C0F34010A071C879C0F3C100E0717B
:100A2000C87900F007002072087AE072487A2073D3
:100A3000887A6073C87AC008A073C87A00F007008B
:100A4000A072087BE073487B2074887B6074C87B4D
:100A5000FFF707FE9FED061B53EC112BFFF720FD60
:100A6000FFF71FFE6061002010BD000000000000C5
:100A70009A9999999999A93FDFED100A00B520EE4E
:100A8000200A83B001210191BCEEC00A002200922D
:100A900010EE101A01AB8DF803100A0A8DF802202F
:100AA0000A0C8DF80120090E8DF800106A460449E1
:100AB00000F0DAFB03B0002000BD000000007A4423
:100AC00068000020014801F01DB900001C0A002048
:100AD000014801F017B900003C0B0020014801F06B
:100AE00011B90000DC0A0020014801F00BB9000038
:100AF00044080020014801F005B900007C0A0020EC
:100B0000704700000022835C8B54521C0D2AFADBD4
:100B1000F0EE001A20EE210ABCEEC00A10EE100A18
:100B2000B1EE000A487320EE800ABCEEC00A10EE57
:100B3000100A9FED060A8873C1EE000ABCEEE00AB7
:100B400010EE100AC873002070470000CDCC4C3D59
:100B50002DE9F04716462DED088B0F4600249FED3A
:100B6000429ADFF80891DFF8088199F80000002820
:100B700004BFBDEC088BBDE8F0874ED9DFF8F4A0C8
:100B80009FED3DAB9FED3EBB04EB440007EBC00582
:100B9000286950453EBF95ED010AB4EEC90AF1EE51
:100BA00010FA34D295ED030AB0EEC00A10EE100A26
:100BB000FFF764FD53EC1A2BFFF772FC53EC1B2B71
:100BC000FFF7E0FCFFF76DFDFFF758FD41EC100B60
:100BD00003F0EAFED5ED019AB0EE408AF0EE608AAD
:100BE00019EE900AFFF74AFD53EC182BFFF758FC5B
:100BF000FFF757FD6861B0F1804F08DAB0EE699AEF
:100C0000B5EEC09AF1EE10FA18BF88F80040601CEB
:100C1000C4B299F800008442B6D398F8000000EB03
:100C2000400057F8301007EBC000316090ED050A26
:100C3000154986ED050A90ED010A86ED010A90ED51
:100C4000020A86ED020A90ED030A86ED030A90ED92
:100C5000040A002086ED040A0870BDEC088BBDE88C
:100C6000F08700000000000000007A444D000020E2
:100C700004000020000020C21F85EB51B81E09406F
:100C8000000000000080664080000020DFED321A86
:100C900010B580EEA11ADFED310A04462DED048B6C
:100CA00061EE200A9FED2E1A20EE010A80EE808A66
:100CB000B5EEC08AF1EE10FA38BFB1EE488A9FED6A
:100CC000290ADFED290A78EE408A38EE000A40EE64
:100CD000000A10EE900AFFF7D1FC41EC100B03F074
:100CE000C7FE51EC100BFFF7DCFCD4ED010AB2EEAD
:100CF000030A09EE100A70EE800A94ED050A38EE38
:100D0000400A60EEA00A40EE000A10EE900AFFF7DB
:100D1000B5FC41EC100B03F0ABFE51EC100BFFF7F0
:100D2000C0FCFFEE000A00EE100A39EE201AB4EE05
:100D3000C01AF1EE10FA0ADD78EEE00AF4EEC00A0D
:100D4000F1EE10FA3EBF0120BDEC048B10BD002077
:100D5000BDEC048B10BD00006666664000003443A5
:100D6000C3F548403333B33F0080B442334A12687E
:100D7000A2F2FF420A604378027803F07F0342EA5E
:100D8000032200EE102AF8EE400A9FED2D0A60EED5
:100D9000800AC1ED010AC378827803F03F0342EA7A
:100DA0000322B2F5005F28BFA2F5804201EE102AAF
:100DB0002CBFB8EEC11AB8EE411A21EE000A9FED21
:100DC000211A81ED020A42798379920803F01F0308
:100DD00042EA8312B2F5806F28BFA2F5006200EEEE
:100DE000102A2CBFB8EEC00AB8EE400A20EE010A65
:100DF000F5EEC00AF1EE10FA81ED030ADEBF9FEDB9
:100E0000120A81ED040A70478279C079520900F014
:100E10007F0042EAC0009FED0D0AB0F5007F28BFB9
:100E2000A0F5806000EE900A2CBFF8EEE00AF8EE24
:100E3000600A10EE810A81ED040A7047AC070020B9
:100E40000AD7233CCDCCCC3D00000000000020425E
:100E50002DE9F0410C4907468AB091E87D118DE8F3
:100E60007D11D1E90801CDE908016946384600F055
:100E700073FA384600F07FFE1021384600F0E0F9A2
:100E80000AB00020BDE8F081B86800082DE9F04103
:100E90000C4907468AB091E87D118DE87D11D1E9B2
:100EA0000801CDE908016946384600F055FA384690
:100EB00000F061FE0221384600F0C2F90AB00020BD
:100EC000BDE8F0816C69000838B44FF0000CCDF833
:100ED00000C090F83C20012A02BF022038BC7047B5
:100EE000012280F83C200A6807240368092A13D9E4
:100EF000DD680A3A02EB420204FA02F225EA020233
:100F0000DA600A788B680A3A02EB42029340026880
:100F1000D4682343D36010E01D6902EB420204FA57
:100F200002F225EA02021A610A788B6802EB420299
:100F3000934002681469234313614A681F24072AF7
:100F400015D203685D6B521E02EB820204FA02F2B4
:100F500025EA02025A630A8893B20A79521E02EB0A
:100F6000820293400268546B234353632BE003686F
:100F70000D2A14D21D6BD21F02EB820204FA02F278
:100F800025EA02021A630A8893B20A79D21F02EB99
:100F9000820293400268146B2343136313E0DD6AFB
:100FA0000D3A02EB820204FA02F225EA0202DA6248
:100FB0000A8893B20A790D3A02EB820293400268E2
:100FC000D46A2343D362174B0468154A9C4204BF7A
:100FD0000C68122C03D1546844F4800454600468F3
:100FE0009C4218D10B68122B18BF112B13D15368D8
:100FF00043F400035360096812290CD10A490B4AD3
:101000000968B1FBF2F101EB81014900009102D0C6
:10101000491E0091FCD180F83CC038BC00207047CC
:1010200000230140002001401001002040420F0039
:101030002DE9F04104004FF0000504BF0120BDE898
:10104000F081554F206C002628B9666484F83C6016
:10105000204600F0A9F8206C10F0100F18BF0125F1
:1010600004D084F83C602846BDE8F081206C20F470
:10107000885040F0020020644848416821F4403123
:10108000416041686268114341602068416821F411
:101090008071416020684168226941EA0221416013
:1010A0002068416821F04071416020684168A26871
:1010B000114341602068816821F4006181602068EB
:1010C0008168E26811438160A06AB8422068816843
:1010D00021F0706181602068816808BF21F0405173
:1010E0000BD0A26A114381602068816821F04051D1
:1010F000816020688168E26A1143816020688168AC
:1011000021F00201816020688168A26941EA420100
:101110008160206A00282068416808BF21F40061CE
:101120000ED041F4006141602068416821F46041C3
:101130004160206841681A4B626A03EB42321143F6
:1011400041602068C16A21F47001C1622068C16AEF
:10115000A28B144B03EB02521143C16220688168D9
:1011600021F40071816020688168226B41EA42218C
:1011700081602068816821F48061816020688168D5
:10118000626941EA822181606664206C20F002007D
:1011900040F00100206464E70100000F00230140DB
:1011A00000E0FFFF0000F0FF70B50546006886B064
:1011B000A0F18041B1F590311CBF06B070BD002692
:1011C0001748016841F4807101600068694600F4C5
:1011D00080700590302000900320CDE90106114871
:1011E00000F078FF114C1048C4E900060015A66015
:1011F000C4E90360400060618000A0614011E061CB
:101200004002C4E90806204600F068FE18B18F21AC
:1012100007A003F0AFFBAC63A56306B070BD000090
:10122000443802400000024010640240440800209C
:101230002E2E2F5372632F6164632E630000000013
:1012400090F82020012A1CBF90F82020022A05D007
:10125000416A41F48021416201207047006842697F
:10126000114341610020704770B490F820C0BCF178
:10127000010F1CBF90F820C0BCF1020F06D0416ADC
:1012800041F48021416270BC01207047D0F800C059
:10129000DCF8084014F0806F01BFDCF8084014F05F
:1012A000006FDCF8084014F0805F4DD0DCF808C017
:1012B0000124CCF3016C04FA0CF41C608B684FF42D
:1012C000C0749BB1CD6804EB0C162B434D6843EA08
:1012D000C5030568AB514FF4C273066803EB0C13EA
:1012E0000D69F550097D01290ED108E00D88CB6804
:1012F00004EB0C1643EA45530568AB51EBE7016874
:10130000CD5845F48075CD501179D2F805304FF4A1
:10131000C67541EA0321036805EB0C155951117894
:10132000D2F801204FF4C47341EA0221026803EBB2
:101330000C13D150016804EB0C100A5842F0010262
:101340000A5070BC00207047416A41F400114162AC
:1013500070BC01207047000090F820300268012B1B
:101360001CBF90F82030022B05D0416A41F4802147
:101370004162012070474148A2F1804CBCF5D84C35
:1013800018BF0246D2F8003243F00103C2F800321F
:1013900082420CD1D2F8000220F47C50C2F8000244
:1013A000D2F800024B6A40EA0320C2F80002087D2E
:1013B000012303FA00F0D2F81C328343C2F81C3236
:1013C000CB69D3B9D2F80C328343C2F80C32B1F8EE
:1013D0000CC04B686CF31F43D1F814C002EBCC0C6B
:1013E000CCF84032B1F808C00B686CF31F43D1F859
:1013F00014C002EBCC0CCCF84432CB69012B1AD1CF
:10140000D2F80C320343C2F80C32B1F800C04B687A
:101410006CF31F43D1F814C002EBCC0CCCF8403273
:10142000B1F808C0CB686CF31F43D1F814C002EBCD
:10143000CC0CCCF844328B69002BD2F804320CBFB0
:1014400083430343C2F804320B69002BD2F81432F1
:101450000CBF83430343C2F81432096A012904D143
:10146000D2F81C120843C2F81C02D2F8000220F085
:101470000100C2F800020020704700000064004034
:10148000704710B490F820C0BCF1010F1CBF90F859
:1014900020C0BCF1020F06D0416A41F480214162B4
:1014A00010BC0120704711B1012908D00EE0D0F81E
:1014B00000C0DCF80CC01CF0030F07D17BE0D0F8B3
:1014C00000C0DCF810C01CF0030F74D04FF4D87CBF
:1014D00004680CEB011C54F80C4014F004049460F4
:1014E000046854F80C4007BF640D1460E4085460AD
:1014F000046854F80CC0CCF3400CC2F80CC04FF494
:10150000DA7C04680CEB011C54F80C4004F00F0466
:101510001461046854F80C40C4F30724946104680F
:1015200054F80CC04FEA1C4CC2F814C04FF4DC72E3
:10153000D0F800C002EB01125CF802C083F800C0D2
:10154000D0F800C05CF802C04FEA1C2C83F801C040
:10155000D0F800C05CF802C04FEA1C4C83F802C00F
:10156000D0F800C05CF80220120EDA704FF4DE7280
:10157000D0F800C002EB01125CF802C083F804C08E
:10158000D0F800C05CF802C04FEA1C2C83F805C0FC
:10159000D0F800C05CF802C04FEA1C4C83F806C0CB
:1015A000D0F800C05CF80220120EDA7151B10129A6
:1015B0000ED012E0FFE7416A41F40011416210BC15
:1015C000012070470068C16841F02001C16004E05B
:1015D0000068016941F02001016110BC00207047E2
:1015E0002DE9F05F0546006800244669D0F80490B4
:1015F0008768D0F80CB0D0F810A0D0F8188016F09A
:10160000010F25D017F0010F07D00121816017F0DD
:10161000020F7CD0284600F0E0FA17F4807F09D052
:1016200029684FF48070886017F4007F70D02846D6
:1016300000F0D5FA17F4803F0AD029684FF48030C3
:10164000886017F4003F00F0B980284600F0C9FA1E
:1016500016F0080F18BF1BF0100F04D029681020D7
:1016600044F40074C86016F0040F4FF0080718BF68
:101670001BF0080F04D02868C760284600F0D0F996
:1016800016F0020F07D02868C06810F0030F1CBFC7
:10169000284600F0C7F916F0400F18BF1AF0100FD7
:1016A00004D02968102044F48064086116F0200FEB
:1016B00018BF1AF0080F04D028680761284600F008
:1016C00013FA16F0100F07D02868006910F0030F06
:1016D0001CBF284600F00AFA16F4003F18BF19F0A4
:1016E000100F05D0296810204860284600F042FA03
:1016F00016F4803F18BF19F0080F04D0286847601F
:10170000284600F06FFA16F4004F78D001E035E07B
:1017100044E019F0040F6FD016F4807F1CBF18F05E
:10172000010F44F0010416F4007F1CBF18F0020FF3
:1017300044F0020416F4806F1CBF18F0040F44F04C
:10174000040416F4006F18BF18F0700F54D008F09E
:101750007000402808BF44F0400448D03EDC102808
:1017600008BF44F0080442D0202808BF44F0100409
:101770003DD0302808BF44F0200438E017F0040FB3
:1017800018BF4FF400647FF448AF17F0080F0ABF8A
:1017900028464FF4805400F01FFA3EE717F4806F9C
:1017A00018BF44F400547FF445AF17F4006F0ABF2C
:1017B000284644F4804400F011FA3BE717F4802FE8
:1017C00018BF44F400447FF443AF17F4002F0ABF5E
:1017D000284644F4803400F003FA39E7502808BF63
:1017E00044F0800403D0602808BF44F48074286863
:1017F000816921F070018161296804204860002C12
:1018000008BFBDE8F09F686A204368622846FFF77A
:1018100037FEBDE8F09F002804BF0120704770B577
:10182000044690F82000002804BF204600F088F805
:101830002068016821F00201016000F059FD0546B1
:10184000206840684FF0050610F0020F09D000F044
:101850004FFD401B0A2816D82068406810F0020F80
:10186000F5D12068016841F00101016000F040FD00
:1018700005462068406810F0010F11D100F038FDD6
:10188000401B0A2807D9606A40F40030606284F87F
:101890002060012070BD2068406810F0010FEDD07D
:1018A000207E0128206801680CBF41F0800121F0F2
:1018B00080010160607E0128206801680CBF41F052
:1018C000400121F040010160A07E012820680168EC
:1018D0000CBF41F0200121F020010160E07E0128D1
:1018E000206801680CBF21F0100141F01001016077
:1018F000207F0128206801680CBF41F0080121F019
:1019000008010160607F0128206801680CBF41F078
:10191000040121F004010160D4E902010843D4E983
:101920000412114308436168491E08432168C861D5
:1019300000206062012084F82000002070BD0000BB
:1019400070B501680026334A032409253248A1F105
:10195000804386B04FF0020CB3F5C84324D0B3F5F2
:1019600080633AD0B3F580631CBF06B070BD1168C8
:1019700041F0006111601168029601F0006105916B
:101980004FF40141CDE9001C0B21CDE9034169462B
:1019900000F0A0FB002205214B2000F04FFD4B2062
:1019A00000F040FD06B070BD116841F0007111609B
:1019B0001168029601F0007105914FF4C051CDE914
:1019C000001C6946CDE9034500F084FB00220D218F
:1019D000142000F033FD142018E0106840F08060FF
:1019E00010601068029600F0806005904FF440503F
:1019F000CDE9000C69460948CDE9034500F06AFBD2
:101A000000220E21412000F019FD412000F00AFDC6
:101A100006B070BD403802400000024000040240A1
:101A20007047000070B52649044600680968254DD6
:101A3000254E884211D1254B324600212048FFF720
:101A400020FD23497068884207D12248006803F0CE
:101A500047FD2915284600F042FC1F492068096807
:101A6000884218BF70BD1D4B174A00211A48FFF766
:101A700008FD70681A4EC0F30F201A4CA0F57E4185
:101A80006C3906D0A0F57A41053918BF00200BD07B
:101A900008E04FF48071284600F021FC306803F024
:101AA0001FFD0120207070BD4FF48071284600F0AA
:101AB00016FC306803F014FD0220207070BD000099
:101AC0009C0B002000100240C80700205E00002090
:101AD000D8E0FE183C000020EC0B0020560000204F
:101AE000400000204C0000207047000010B51B494A
:101AF00000680968884218BF10BD194B194A0121B6
:101B00001648FFF7BEFC1648841E0178002904BF62
:101B1000407810F07F0F0BD06078134900EB400045
:101B200001EBC0010E48FFF721F96078401C60709E
:101B30000C480068A0F5A0613F3918BF10BD0B4AE2
:101B40000748A2F5C061FFF703F80020607008485D
:101B50000068BDE8104003F0C3BC0000C40B0020C7
:101B60004E000020AC0700209401002094070020C4
:101B700044000020704770B5044690F8200001280A
:101B800004D0606A40F4002060621BE0022084F808
:101B900020002068016821F00101016000F0A8FB2D
:101BA00005462068406810F0010F12D000F0A0FB3D
:101BB000401B0A2808D9606A40F4003060620520A2
:101BC00084F82000012070BD2068406810F0010FEB
:101BD000ECD10020606270BD70477047704770475D
:101BE000704770477047002804BF0120704710B548
:101BF0000446407920B900202071204600F006F804
:101C00000220607101206071002010BD006881B069
:101C1000A0F18041B1F50C311CBF01B070470548FF
:101C2000016841F480510160006800F48050009028
:101C300001B07047303802402DE9F0410446866D0E
:101C400000F056FB054694F835000027022806D020
:101C50008020606584F834700120BDE8F081206840
:101C6000016821F0160101602068416921F08001BE
:101C70004161206C002804BFA06C002804D02068BB
:101C8000016821F0080101602068016821F001016C
:101C900001602068006810F0010F12D000F028FBEE
:101CA000401B052808D92020606584F83470032083
:101CB00084F83500BDE8F0812068006810F0010F5D
:101CC000ECD194F85C003F2101FA00F0B06084F898
:101CD0003470012084F835000020BDE8F08190F8D0
:101CE0003510022903D0802141650120704705216C
:101CF00080F835100068016821F0010101600020C2
:101D0000704700002DE9F84304464FF00008CDF875
:101D1000008071484FF41651A56D0068B0FBF1F7D3
:101D20002E6894F85C00082101FA00F0304211D0CE
:101D30002068026812F0040F0CD0026822F004023E
:101D4000026094F85C0001FA00F0A860606D40F059
:101D50000100606594F85C004FF0010909FA00F099
:101D6000304209D02168496911F0800F04D0A86081
:101D7000606D40F00200606594F85C1004208840BB
:101D8000304209D02168096811F0020F04D0A86020
:101D9000606D40F00400606594F85C10102088408D
:101DA000304220D02168096811F0080F1BD0A860CC
:101DB0002068016811F4802F09D0006810F4002F0A
:101DC00002D0A16C79B10CE0216C51B90BE0016833
:101DD00011F4807F03D1016821F008010160216CBA
:101DE00009B12046884794F85C1020208840304292
:101DF00049D02168096811F0100F44D0A86094F808
:101E0000350005282068016809D011F4802F2AD0F8
:101E1000006810F4002F23D0E16B19B331E021F0FA
:101E2000160101602068416921F080014161206C48
:101E3000002804BFA06C002804D02068016821F0AD
:101E40000801016094F85C003F2101FA00F0A860ED
:101E500084F8348084F83590216DC1BBBDE8F883E7
:101E6000616C71B90FE0016811F4807F07D10168DE
:101E700021F01001016084F8348084F83590E16B22
:101E800009B120468847606D002808BFBDE8F88387
:101E9000606D10F0010F15D0052084F83500206822
:101EA000016821F0010101600098401C0090B842D7
:101EB00004D82068006810F0010FF5D184F8348050
:101EC00084F83590E16C002908BFBDE8F88320460E
:101ED00001B0BDE8F04308471001002070B504468A
:101EE00000F006FA0646002C04BF012070BD002554
:101EF00084F83450022084F835002068016821F00D
:101F0000010101602068006810F0010F0FD000F09F
:101F1000EFF9801B052805D920206065032084F88F
:101F2000350070BD2068006810F0010FEFD1216806
:101F300008683A4A1040D4E901231A43D4E9033C23
:101F400043EA0C031A4363691A43A3691A43E3691A
:101F50001A43236A1A431043626A042A03D1D4E95C
:101F60000B231A4310430860266870694FF0010C78
:101F700020F00701606A40EA0102042835D1A16A15
:101F8000E06A0A4318B3A36953B1B3F5005F14D0F4
:101F900000291CBF0129022921D003291CD024E0DB
:101FA00019B1012905D002291FD110F0807F1CD062
:101FB00015E0B0F1C07F18D111E081B1012907D03F
:101FC00002290CD0032908BFB0F1C07F07D00CE074
:101FD00010F0807F03D108E010F0807F05D0402012
:101FE000606584F835C0012070BD726120680C4ABC
:101FF000C1B21039A2FB01210A4A09090329525C26
:10200000E2656FF3090088BF001D3F219140A06584
:102010008160656584F835C0002070BD3F8010E0A8
:10202000ABAAAAAAE469000870B490F834C00024EE
:10203000856DBCF1010F02BF022070BC70474FF0EC
:10204000010C80F834C090F835604FF0000C012E80
:102050001CBF80F834C0022402D0204670BC7047F8
:10206000022680F83560C0F854C0D0F800C0DCF813
:10207000006026F48026CCF80060D0F800C0CCF8D0
:1020800004308368402B036803BF9A600268D16004
:1020900099601CBF0168CA6090F85C103F2202FA88
:1020A00001F1A96001680A6842F016020A6001683D
:1020B0004A6942F080024A61016C21B101680A68F4
:1020C00042F008020A600068016841F00101016005
:1020D000C3E700002DE9F84FDFF8EC910022DFF8AC
:1020E000E4814FF0010E0F2709F1040A0B680EFA84
:1020F00002F52B40AB4240F0DF80D1F804C0BCF1C8
:10210000020F18BFBCF1120F12D14FEAD20C00EB34
:102110008C0CDCF820605407E40E07FA04FB26EA76
:102120000B06D1F810B00BFA04F43443CCF820407D
:1021300006684FEA420C91F804B0032404FA0CF448
:102140000BF0030BA6430BFA0CFB4BEA06060660EA
:102150004E68012E18BF022E03D0112E18BF122E6A
:1021600011D18668D1F80CB0A6430BFA0CFB4BEAF0
:1021700006068660466826EA05050E79C6F300164F
:10218000964035434560C56825EA04048D6805FA24
:102190000CFC4CEA040CC0F80CC0D1F804C01CF0D4
:1021A000805F7CD0D8F800C04CF4804CC8F800C0E8
:1021B000D8F800C00CF4804CCDF800C022F0030C1D
:1021C0000CF1804505F59835D5F808C89407240F1B
:1021D00007FA04F62CEA0606A0F1804CBCF5003C98
:1021E00030D0A0F1804CBCF5013C08BF4FF0010C91
:1021F00028D0A0F1804CBCF5023C08BF4FF0020C87
:1022000020D0A0F1804CBCF5033C08BF4FF0030C7C
:1022100018D0A0F1804CBCF5043C08BF4FF0040C72
:1022200010D0A0F1804CBCF5053C08BF4FF0050C68
:1022300008D0A0F1804CBCF5063C0CBF4FF0060C5A
:102240004FF0070C0CFA04FC4CEA060CC5F808C861
:10225000D9F800C04C682CEA030C14F4803F18BF76
:102260004CEA030CC9F800C0DAF800C04C682CEA4C
:10227000030C14F4003F18BF4CEA030CCAF800C06A
:10228000124CD4F800C04D682CEA030C15F4801FE2
:1022900018BF4CEA030CC4F800C00D4C00E00BE082
:1022A000D4F800C04D682CEA030C15F4001F18BFC9
:1022B0004CEA030CC4F800C0521C102AFFF416AFFD
:1022C000BDE8F88F44380240003C0140083C014022
:1022D0000C3C01400069084018BF0120704742696A
:1022E000514041617047002A08BF0904816170476D
:1022F000014880687047000004010020024881689E
:102300000278114481607047040100200B4810B529
:10231000016841F400710160016841F4806101606D
:10232000016841F480710160032000F0B9F80020D9
:1023300000F006F800F03EF8002010BD003C02401E
:1023400010B5014688B000221E2000F077F81E204C
:1023500000F068F813480024016841F004010160AE
:10236000006805A900F004000690684600F058F9DE
:1023700000F07CF90C494000B0FBF1F0411E0C4824
:102380000A4A026040F2E732C0E90324C0E90114BE
:1023900000F000FC00280ABF0548012000F038FCCE
:1023A00008B010BD4038024040420F000008004015
:1023B000180100201A4808B5016841F48041016005
:1023C000006800F480400090032000F069F80022CB
:1023D00011466FF00B0000F031F8002211466FF04B
:1023E0000A0000F02BF8002211466FF0090000F0FF
:1023F00025F800221146501F00F020F80022114657
:10240000101F00F01BF800220F21901E00F016F89C
:1024100000220F21BDE80840501E00F00FB8000058
:102420004438024000F01F01012202FA01F1400984
:10243000800000F1E020C0F800117047174B10B485
:102440001B68C3F30223C3F1070CBCF1040F88BF60
:102450004FF0040C1C1D072C34BF0023DB1E01248D
:1024600004FA0CFCACF1010C0CEA0101994004FAED
:1024700003F35B1E1A40114300284FEA0111A1BF6C
:1024800000F1E02080F8001410BC704700F00F004D
:1024900000F1E02080F8141D10BC70470CED00E046
:1024A000074A00F0070011684FF6FF03194041EAA0
:1024B000002040F0FD7040F0806010607047000028
:1024C0000CED00E0002804BF012070472DE9F04723
:1024D000DFF8389104460D46D9F80000CFB200F07D
:1024E0000F00A84207D289F80070D9F8000000F068
:1024F0000F00A84262D12068454E10F0020F14D0A0
:1025000010F0040F03D0306840F4E05030602078C1
:1025100010F0080F03D0306840F46040306030683D
:10252000A16820F0F00008433060207810F0010F1F
:1025300036D060683749012822D0022818BF032806
:10254000096822D011F0020F38D0316821F0030160
:1025500008433060FFF7CCFE80463068616800F0C9
:102560000C00B0EB810F18BF41F2883A18D0FFF78A
:10257000BFFEA0EB080050450BD90320BDE8F08753
:10258000096811F4003FE0D118E011F0007FDCD1C0
:1025900014E03068616800F00C00B0EB810FE6D108
:1025A000D9F8000000F00F00A8420AD989F800709D
:1025B000D9F8000000F00F00A84202D00120BDE8C9
:1025C000F087207810F0040F05D03068E16820F41F
:1025D000E05008433060207810F0080F06D03068D3
:1025E000216920F4604040EAC100306000F05EF8EC
:1025F0003168094AC1F30311515CC84007490860BA
:102600000020FFF79DFE0020BDE8F087003C02405F
:102610000838024000380240EC6900081001002030
:102620000F2202600C4A136803F00303436013682F
:1026300003F0F0038360136803F4E053C36012688F
:102640004FF4E05303EAD20202610448006800F04C
:102650000F0008607047000008380240003C02404C
:102660000148006870470000100100200448054937
:1026700000680968044AC1F38221515CC840704770
:102680001001002008380240FC6900080448054990
:1026900000680968044AC1F34231515CC840704780
:1026A0001001002008380240FC6900081848006842
:1026B00010F00C01174808BF7047174B042904BFDE
:1026C00018467047082918BF704710B5134C216889
:1026D00001F03F02216811F4800F08D02068C0F398
:1026E0008810A0FB03010023FDF7F0FD07E021683F
:1026F0000023C1F38811A1FB0001FDF7E7FD21686C
:10270000C1F30141491C4900B0FBF1F010BD0000CC
:10271000083802400024F40000127A000438024015
:102720002DE9F84F04460078E54D10F0010F57D021
:10273000E448016801F00C01042909D0006800F0A8
:102740000C0008280DD1281D006810F4800F08D057
:10275000286810F4003F43D06068002800F0AD8185
:102760003EE06068B0F5803F19D0B0F5A02F286832
:102770000CBF40F4802020F48030286028680CBF13
:1027800040F4803020F4802028606068B8B1FFF702
:10279000AFFD0646286810F4003F05D020E0286809
:1027A00040F480302860F0E7FFF7A2FD801B64282A
:1027B00000F23E81286810F4003FF5D010E0FFF7EA
:1027C00097FD0646286810F4003F09D0FFF790FDFA
:1027D000801B642800F22C81286810F4003FF5D19A
:1027E0002078B94F10F0020F4FF0000846D0B548DE
:1027F000016811F00C0F15D0006800F00C000828DB
:1028000004D1B248006810F4800F0BD0E06818B310
:1028100001203860FFF76CFD0646286810F0020FB3
:1028200009D011E0286810F0020F1CBFE0680128F1
:102830000AD000F042B9FFF75BFD801B02287DD86B
:10284000286810F0020FF6D02868216920F0F800FF
:1028500040EAC100286011E0C7F80080FFF748FD9A
:102860000646286810F0020F08D0FFF741FD801BD4
:10287000022863D8286810F0020FF6D1207810F0F3
:10288000080F2DD09248DFF84C926169A1B1012167
:102890000160FFF72DFD0646D9F8000010F0020F89
:1028A0001ED1FFF725FD801B022847D8D9F800006C
:1028B00010F0020FF5D013E0C0F80080FFF718FD0C
:1028C0000646D9F8000010F0020F09D0FFF710FDFE
:1028D000801B022832D8D9F8000010F0020FF5D181
:1028E000207810F0040F7DD0DFF8ECA10026DAF894
:1028F000000010F0805F0BD1DAF8000040F080504B
:10290000CAF80000DAF80000012600F080500090BC
:10291000DFF8C8B1DBF8000010F4807F1AD1DBF8D3
:10292000000040F48070CBF80000FFF7E1FC814626
:10293000DBF8000010F4807F0CD100E078E0FFF7B6
:10294000D7FCA0EB0900022872D8DBF8000010F4D5
:10295000807FF2D0A068DFF888B101281DD005285B
:10296000DBF800000CBF40F0040020F00100CBF8C1
:102970000000DBF800000CBF40F0010020F0040074
:10298000CBF80000A068E8B1FFF7B2FC8146DBF8A5
:10299000000010F0020F07D02BE0DBF8000040F041
:1029A0000100CBF80000EDE7FFF7A2FCA0EB090166
:1029B00041F2883081423BD8DBF8000010F0020F72
:1029C000F2D016E0FFF794FC8146DBF8000010F02F
:1029D000020F0ED0FFF78CFCA0EB090141F288300A
:1029E000814200E00CE023D8DBF8000010F0020F79
:1029F000F0D12EB1DAF8000020F08050CAF80000C3
:102A0000A069E8B32F49096801F00C01082954D0E6
:102A10000228C7F860800ED0FFF76AFC04462868D9
:102A200010F0007F46D0FFF763FC001B02283DD961
:102A30000320BDE8F88FFFF75BFC0646286810F01E
:102A4000007F08D0FFF754FC801B0228F0D82868CC
:102A500010F0007FF6D1D4E907010843A16A214AAA
:102A6000490802EB0141626A41EA8211084394F885
:102A70002C1040EA016094F8301040EA017100E047
:102A800018E01248016001203866FFF731FC044667
:102A9000286810F0007F0DD1FFF72AFC001B0228E8
:102AA000C6D8286810F0007FF6D003E0286810F040
:102AB000007FB8D10020BDE8F88F0120BDE8F88F75
:102AC0000038024008380240000047420438024003
:102AD000800E474274380240403802400070004087
:102AE000703802400000FFFF4FF0E0210428086921
:102AF0000CBF40F0040020F00400086170470000A3
:102B0000401EB0F1807F24BF012070474FF0E021CC
:102B10004861054AF02082F8140D002088610720E2
:102B200008610020704700000FE000E07047704728
:102B300090F83820012A04BF0220704710B4012306
:102B400080F83830022280F839200268D2F804C0B8
:102B50002CF0700CC2F804C00268D2F804C00C68F3
:102B60004CEA040CC2F804C00268D2F808C02CF089
:102B7000800CC2F808C00268D2F808C049684CEA64
:102B80000101916080F83930002180F8381010BCC4
:102B900008467047002804BF0120704710B504465E
:102BA00090F8390028B9002084F83800204600F059
:102BB0000DF8022084F83900211D206801F02EFB59
:102BC000012084F83900002010BD000000680F4982
:102BD00081B0B0F1804F10D0A0F18042B2F5806298
:102BE0001CBF01B07047086840F002000860086828
:102BF00000F00200009001B07047086840F001004A
:102C00000860086800F00100F4E700004038024066
:102C10000168CA6842F00102CA600068016841F0B8
:102C2000010101600020704790F83820012A0DBF93
:102C30000220012380F83830704730B4022280F837
:102C400039200268D2F808C02CF0770C2CF47F4CA5
:102C5000C2F808C00A68502A41D00CDC202A76D07D
:102C600004DC002A74D0102A73D0B1E0302A71D06D
:102C7000402A71D0ACE0602A4DD0702A0BD0B2F55A
:102C8000805F03D0B2F5005F17D0A1E001688A68C9
:102C900022F007023DE00268D1F804C08C68C968E0
:102CA00095684CEA012125F47F4521432943916031
:102CB00001688A6842F077022BE00268D1F804C00C
:102CC0008C68C96895684CEA012125F47F45214349
:102CD0002943916001688A6842F4804219E00268E1
:102CE000D1F804C0CC68116A156A25F00105156297
:102CF000956921F00A0125F0F00545EA041441EA3E
:102D00000C019461116201688A6822F0700242F03D
:102D100057028A605CE00268D1F804C0CC68116A8E
:102D200021F0100111629569116A25F4704545EA98
:102D3000043421F0A00141EA0C1194611162016890
:102D40008A6822F0700242F067028A6040E030E058
:102D50001FE026E035E0FFE70268D1F804C0C9684B
:102D6000146A156A25F001051562956924F00A04B4
:102D700025F0F00545EA011144EA0C0C9161C2F816
:102D800020C001688A6822F0700242F047028A601F
:102D90001EE001688A6822F0700242F007028A6031
:102DA00016E001688A6822F0700242F017028A6019
:102DB0000EE001688A6822F0700242F027028A6001
:102DC00006E001688A6822F0700242F037028A60E9
:102DD00080F83930002180F8381030BC0846704740
:102DE000704770B50446006801694FF0000511F0A6
:102DF000020F1CBFC16811F0020F13D06FF0020167
:102E00000161012020762068806910F0030F2046C0
:102E100002D0FFF7E5FF04E000F099F8204600F04B
:102E200097F825762068016911F0040F1CBFC1686E
:102E300011F0040F13D06FF004010161022020761D
:102E40002068806910F4407F204602D0FFF7C8FF59
:102E500004E000F07CF8204600F07AF8257620683F
:102E6000016911F0080F1CBFC16811F0080F13D0E1
:102E70006FF008010161042020762068C06910F01D
:102E8000030F204602D0FFF7ABFF04E000F05FF82D
:102E9000204600F05DF825762068016911F0100FDA
:102EA0001CBFC16811F0100F13D06FF01001016149
:102EB000082020762068C06910F4407F204602D0A8
:102EC000FFF78EFF04E000F042F8204600F040F8E3
:102ED00025762068016911F0010F1CBFC16811F04F
:102EE000010F05D06FF001010161204600F031F8BB
:102EF0002068016911F0800F1CBFC16811F0800FBC
:102F000005D06FF0800101612046FFF70FFE2068B9
:102F1000016911F0400F1CBFC16811F0400F05D0CE
:102F20006FF040010161204600F01CF82068016943
:102F300011F0200F1ABFC16811F0200F70BD6FF0A3
:102F4000200101612046BDE87040FFF7F0BD7047E9
:102F500070470068A0F18041B1F5006118BF70476B
:102F6000FFF7CCB9704770B504460068416994F822
:102F70003920C1F3C0112025212A10D179B141692E
:102F800021F080014161206B002818BFFEF754FE3C
:102F90002068C16821F0C001C16084F83950206800
:102FA000416994F83A20C1F38011222A15D1A1B1C8
:102FB000416921F040014161606B002818BFFEF7B4
:102FC0003BFE2068C16821F49071C16020684169AE
:102FD00021F00101416184F83A50002070BD704732
:102FE00070B5026804461068D168536910F00F0F7D
:102FF0004FF0200566D003F0010C01F490765CEAF6
:10300000060C75D010F0010F18BF11F4807F03D0AB
:10301000E26B42F00102E26310F0040F18BF13F0FC
:10302000010F03D0E26B42F00202E26310F0020FE4
:1030300018BF13F0010F03D0E26B42F00402E26309
:1030400010F0080F18BF13F0010F03D0E26B42F02D
:103050000802E263E26B002A08BF70BD10F0200F87
:103060001EBF11F0200F204601F09EF92068416933
:10307000E26BC1F3801102F00802114332D0C16843
:1030800021F49071C1602068416921F00101416122
:1030900084F83A502068416911F0400F1DD0416911
:1030A00021F040014161606BB8B133490165606B4B
:1030B000FEF715FE002808BF70BD606B016DBDE80E
:1030C0007040084710F0200F18BF11F0200F0FD0EC
:1030D0002046BDE8704001F067B92046FFF77FFF4A
:1030E00070BD05E02046FFF77AFF0020E06370BD69
:1030F00010F0800F18BF11F0800F2CD094F8390019
:10310000212818BF70BDA068B0F5805F206A16D076
:10311000411C2162216800784860E08C401E000458
:10312000000CE08418BF70BD2068C16821F08001E8
:10313000C1602068C16841F04001C16070BD008875
:10314000C0F30800506020690028206A14BF401CAA
:10315000801C2062E1E710F0400F14BF11F0400F17
:1031600070BD2046D16821F04001D16084F839500B
:1031700000F021FA70BD0000ED420008002804BFF5
:103180000120704770B5044690F83900002520B939
:1031900084F83850204600F023F8242084F83900C1
:1031A0002068C16821F40051C160204601F042F955
:1031B0002068016921F4904101612068416921F092
:1031C0002A0141612068C16841F40051C160E56392
:1031D000202084F8390084F83A00002070BD0000F7
:1031E0002DE9F04F0168044688480025864A070407
:1031F0000615A1F1804387B04FF002084FF0010996
:103200004FF0030AB3F5A0434FD0814BA1F1804C9E
:103210004FF0070BBCF5883C7ED01CF54C4C7CD0A5
:10322000BCF580631CBF07B0BDE8F08F116841F4A6
:1032300080211160116801F48021059120218DE821
:10324000020F6946FEF746FF8DE8400F6946714858
:10325000FEF740FFDFF8C4816F48C8F80000C8E9F6
:103260000175C8E90356C8F81450C8F81850C8F8D2
:103270001C50C8F820504046C8F82450FEF72EFED7
:1032800020B140F24B1166A001F074FBC4F8348009
:10329000002205212720C8F83840FFF7CFF8272063
:1032A000FFF7C0F807B0BDE8F08F116841F4801156
:1032B000116011684FF0080B01F4801105914FF473
:1032C00080518DE8020F6946FEF704FF04208DE867
:1032D000010F69465648FEF7FDFEDFF85C81554850
:1032E000C8F80000C8E90175C8E90356C8F81450C9
:1032F000C8F81850C8F81C50C8F820504046C8F804
:103300002450FEF7EBFD18B1BD2145A001F032FBC2
:10331000C4F83480002201E008E03EE005213520B9
:10332000C8F83840FFF78AF83520B9E74348016804
:1033300041F0100101600068694600F0100005903E
:103340004FF4C0608DE8010F1846FEF7C3FEDFF8AA
:10335000F4803B48C8F80000C8E90175C8E9035685
:10336000C8F81450C8F81850C8F81C50C8F82050B5
:103370004046C8F82450FEF7B1FD18B1EA2128A054
:1033800001F0F8FAC4F83480002205212520C8F89D
:103390003840FFF753F8252082E7106840F40030EA
:1033A00010601068694600F4003005900C208DE82C
:1033B000010F1846FEF78EFEDFF890802248C8F80D
:1033C0000000C8E90175C8E90356C8F81450C8F8E8
:1033D0001850C8F81C50C8F820504046C8F824506F
:1033E000FEF77CFD20B140F217110DA001F0C2FAEA
:1033F000C4F83480002205212620C8F83840FFF7A1
:103400001DF826204CE7000040380240000802402A
:103410000000024000040240286002403C0B0020F3
:103420002E2E2F5372632F75736172742E630000FA
:10343000000C0240106002401C0A00204438024088
:10344000406402407C0A002088600240DC0A0020C0
:1034500037B5044690F83A0082B0134620283BD195
:10346000039A002A11BF002B012005B030BD94F84B
:103470003800012830D0012084F83800A262A385EA
:103480000025E563222084F83A00616B1448C86384
:10349000616B14480864616B1348C864606B056510
:1034A0002068011D606BFEF7BFFD20680168416860
:1034B000009184F83850C16841F48071C16020687F
:1034C000416941F0010141612068416941F04001D9
:1034D000416105B0002030BD05B0022030BD0000C4
:1034E000614300089F430008FD4200087047704791
:1034F0002DE9F843044690F839001E4691460D46E2
:10350000202855D1002D12BFB9F1000F0120BDE8D0
:10351000F88394F8380001284AD0012084F8380054
:103520000027E763212084F83900FEF7E1FEA4F8C4
:1035300024908046A4F82690E08C30B3E08C401EA6
:10354000E084A0684346B0F5805F4FF000024FF082
:1035500080012046009603D001F00CF970B11CE008
:1035600001F008F9C8B928882168C0F3080048604C
:103570002069002814BF6D1CAD1C03E0216815F8FC
:10358000010B4860E08C0028D8D14346002240213E
:103590002046009601F0EEF810B10320BDE8F88354
:1035A000202084F8390084F838700020BDE8F883C2
:1035B0000220BDE8F8837047FEE70000B0F8010084
:1035C000DFED0C0A00EE100AB8EE400A20EE200AE9
:1035D000F3EE000A20EE200A10EE100AB0F1834F3D
:1035E000C4BFDFED050A30EE600ADFED040A20EE0D
:1035F000200A70470000003800000042CDCC1C417A
:10360000B0F80300DFED0A0A00EE100A0A49B8EE2E
:10361000400A20EE200ADFED070A20EE200A10EE15
:10362000100A8842C4BFDFED050A30EE600A704719
:10363000000000380000FA440000FA4400007A4517
:1036400030B51E4885B01C4901604FF4803141609F
:103650000021012481600461194A0162C0E90A2144
:103660000225C160C0E9064504634461FDF7E0FC42
:1036700018B1542113A001F07DF90420CDE9000414
:10368000694602950D48FDF71FFC18B15E210DA09B
:1036900001F070F90520CDE9000569460748FDF7FE
:1036A00013FC002804BF05B030BD672105A001F060
:1036B00061F905B030BD000000200140FC0700208A
:1036C0000100000F2E2E2F5372632F6164632E634F
:1036D00000000000104810B50E4901600A21416049
:1036E00000214FF480228160C0E903124FF44012A0
:1036F0004261017641768176C17601774177FEF7A6
:103700008AF8002808BF10BD5121BDE8104003A071
:1037100001F030B9006400409C0B00202E2E2F5386
:1037200072632F63616E2E6300000000104810B5B5
:103730000E4901600A21416000214FF4802281601E
:10374000C0E903124FF4401242610176417681765E
:10375000C17601774177FEF75EF8002808BF10BDFB
:103760006721BDE8104003A001F004B900680040E3
:10377000C40B00202E2E2F5372632F63616E2E63B5
:1037800000000000114810B50F490160142141608C
:1037900000214FF480228160C0E903124FF44012EF
:1037A00042610176417601228276C17601774177C6
:1037B000FEF731F8002808BF10BD7D21BDE810409C
:1037C00003A001F0D7B80000006C0040EC0B002013
:1037D0002E2E2F5372632F63616E2E630000000044
:1037E000084910B5064808600846FEF7FCF90028AD
:1037F00008BF10BD4221BDE8104003A001F0BAB8D7
:10380000003002409C0000202E2E2F5372632F6345
:1038100072632E63000000001C4808B5016841F483
:1038200000110160016801F400110091016841F488
:10383000800101600068002200F4800000900521F2
:103840000B20FEF7FBFD0B20FEF7ECFD002205210F
:103850000C20FEF7F3FD0C20FEF7E4FD002205210D
:103860001020FEF7EBFD1020FEF7DCFD0022052105
:103870003820FEF7E3FD002205213A20FEF7DEFDA9
:10388000BDE808403A20FEF7CDBD000030380240C8
:1038900030B5ABB00025012123A8239501F00DFE22
:1038A0004F4C0121A06224A8249501F006FEE0629D
:1038B000012125A8259501F000FE2063012126A8FD
:1038C000269501F0FAFD6063012127A8279501F0F4
:1038D000F4FDA063012128A8289501F0EEFDE06326
:1038E000012129A8299501F0E8FD2064691EA06A3C
:1038F00001F01EFE691EE06A01F01AFE691E206BCF
:1039000001F016FE691E606B01F012FE691EA06BCD
:1039100001F00EFE691EE06B01F00AFE314D95E8E4
:103920000F108DE80F100021684601F03BFE1435A2
:10393000A06095E80F100DF1140E143D8EE80F10E5
:10394000002105A801F02EFE2835E06095E80F1053
:103950000DF1280E283D8EE80F1000210AA801F075
:1039600021FE3C35206195E80F100DF13C0E3C3DE9
:103970008EE80F1000210FA801F014FE5035606191
:1039800095E80F100DF1500E503D8EE80F100021FC
:1039900014A801F007FE6435A06195E80F100DF141
:1039A000640E643D8EE80F10002119A801F0FAFDA5
:1039B0007835E06195E80F101EAD85E80F10002105
:1039C0001EA801F0EFFD20620748FDF75FFA0748E7
:1039D000FDF73EFA064800F047FF2BB030BD00006F
:1039E00008000020E06800089C0B0020C40B0020A9
:1039F000EC0B00202DE9F043494887B00024016812
:103A000041F010010160016801F0100105910168A9
:103A100041F080010160016801F0800105910168B9
:103A200041F001010160016801F0010105910168A7
:103A300041F004010160016801F004010591016891
:103A400041F002010160016801F002010591016885
:103A500041F0080101600068324E00F00800059056
:103A6000002240F284713046FEF73DFC2E4F0022CA
:103A700040213846FEF737FCDFF8B08000220621EF
:103A80004046FEF730FC012211464046FEF72BFC73
:103A9000DFF89C9001224FF440714846FEF723FC6A
:103AA000012280213846FEF71EFC40F2847000900F
:103AB0000125CDE90154694630460394FEF70AFB1F
:103AC00040200090CDE90154694638460394FEF742
:103AD00001FB80200090CDE90154694638460394EB
:103AE000FEF7F8FA4FF440700090CDE901546946B2
:103AF00048460394FEF7EEFA1020CDE9000469462B
:103B000048460294FEF7E6FA07200090CDE90154FA
:103B1000694640460394FEF7DDFA07B0BDE8F0833E
:103B20003038024000100240000002400004024011
:103B30000008024010B5164886B04FF080410024BE
:103B4000C0E900148460C4600461FFF723F818B171
:103B5000492110A000F00EFF4FF4805000906946FC
:103B60000B48FFF761F818B14F210AA000F002FFDF
:103B7000049404A906480594FEF7DAFF002804BF60
:103B800006B010BD562103A000F0F4FE06B010BD33
:103B9000A40800202E2E2F5372632F74696D2E639C
:103BA0000000000010B5174886B015490024C0E990
:103BB00000148460C4600461FEF7ECFF18B1672153
:103BC00011A000F0D7FE4FF48050009069460D48D8
:103BD000FFF72AF818B16D210BA000F0CBFE04947A
:103BE00004A908480594FEF7A3FF002804BF06B007
:103BF00010BD742104A000F0BDFE06B010BD000091
:103C000000040040E00800202E2E2F5372632F7412
:103C1000696D2E63000000000D4810B50B4901606E
:103C20004FF496414160002181600C22C160C0E9DF
:103C300004128161C161FFF7A1FA002808BF10BD1D
:103C40005321BDE8104003A000F094BE0050004096
:103C50001C0900202E2E2F5372632F75736172740E
:103C60002E6300000D4810B50B4901604FF4E1319F
:103C70004160002181600C22C160C0E904128161B1
:103C8000C161FFF77BFA002808BF10BD6621BDE8BF
:103C9000104003A000F06EBE001001405C0900203F
:103CA0002E2E2F5372632F75736172742E63000072
:103CB0000D4810B50B4901604FF4E131416000211E
:103CC00081600C22C160C0E904128161C161FFF70B
:103CD00055FA002808BF10BD7921BDE8104003A0A7
:103CE00000F048BE004400409C0900202E2E2F53B7
:103CF00072632F75736172742E6300000D4810B5E6
:103D00000B4901604FF496414160002181600C2213
:103D1000C160C0E904128161C161FFF72FFA002878
:103D200008BF10BD8C21BDE8104003A000F022BEEA
:103D300000480040DC0900202E2E2F5372632F759F
:103D4000736172742E630000FEE770470D4E0E4DD6
:103D50000E4C4FF0FF31E06A01F0EAFB04213046DF
:103D6000FEF7BDFA0A490848FCF726FE69790129E1
:103D700012BF0229206B01F0B3FB0A2001F090FB77
:103D8000E7E7000000040240E407002008000020EC
:103D900054010020DFF85880DFF85890164C174E79
:103DA00008F1020700254FF0FF31D8F8380001F084
:103DB000BFFB3078012802D0022805D013E0E0795B
:103DC00089F8000035700EE0207801280AD1A0782B
:103DD00000F0030038702079C0F381017970C0F3DE
:103DE0000110B8703570642001F05AFBDBE7000069
:103DF0000800002084000020560000204C00002015
:103E0000194D1A4FDFF86880DFF868901A4C0026C9
:103E100020221A491A48FFF71BFB2878012814D1E1
:103E20002E7097ED001AD8ED000A94ED000A15499E
:103E30001248FCF767FE6423202212491248FFF75C
:103E400057FBD9F82C0001F04BFB94ED000AB5EEBE
:103E5000C00AF1EE10FAC4BF0C48FCF70DFE322088
:103E600001F01EFBD4E70000810000209800002034
:103E70009000002008000020940000205401002041
:103E8000DC090020740100201C0900209C0B00208C
:103E90002DED028B0026264FDFF898809FED268AB5
:103EA000DFF89890DFED268ADFF898A0DFF898B069
:103EB000264C274D4FF0FF31686B01F039FB254848
:103EC000FFF79EFB84ED000A2248FFF777FB87EDA2
:103ED000000A94ED000A10EE100AB5EEC00AF1EEE9
:103EE00010FA04D2804538BFB0EE480A03E04845D6
:103EF000C8BFB0EE680A84ED000A10EE100A504503
:103F000006DC10EE100A58459CBF6E702E700BD95F
:103F1000012068701048007800EE900A0F48F8EE13
:103F2000600AFCF7B3FE2870642001F0B9FAC1E71B
:103F30008C0000200AD7A3C30AD7A3C30AD7A34380
:103F40000AD7A3430000A0400000A0C088000020C2
:103F5000080000205E00002084000020940700205C
:103F6000234EDFF890A0244FDFF89090DFF890B058
:103F7000DFF89080244C254D4FF0FF31E06B01F0CD
:103F8000D7FA96ED010A87ED000A10EE100AD6ED79
:103F9000020AC9ED000A504526DAB5EEC00AF1EE74
:103FA00010FA1CBFF5EEC00AF1EE10FA1CD0B1EE0B
:103FB000401A81EE200A10EE100A88ED000A8345AF
:103FC00005DD03202870206B01F08AFA0CE010EE6A
:103FD000100A0F498842A4BF0020287004DA01208B
:103FE0002870206B01F07CFA022001F059FAC3E737
:103FF0009407002000004843940000209000002017
:10400000000060409800002008000020830000208D
:1040100000009040074C084D4FF0FF31A06A01F0BE
:1040200087FA02212846FEF75AF90A2001F038FAE9
:10403000F2E700000800002000040240304C314D3F
:10404000DFF8C490DFF8C480314E324F4FF0FF31BB
:10405000206B01F06DFA28780A280FD999F8001022
:1040600001292CD003290DD0002204213046FEF76F
:104070003AF9012211463846FEF735F90A2001F0D7
:104080000FFAE3E798F807000028F7D0012204218F
:104090003046FEF728F9002201213846FEF723F9C1
:1040A000642001F0FDF9002204213046FEF71BF9DF
:1040B000012211463846FEF716F964201DE098F8F3
:1040C00007000028DAD0012204213046FEF70BF960
:1040D000002201213846FEF706F94FF4967001F0F0
:1040E000DFF9002204213046FEF7FDF801221146D7
:1040F0003846FEF7F8F84FF4967001F0D1F9BDE7B5
:10410000080000208400002083000020E407002035
:10411000001002400004024001F03ABA30B52448D1
:1041200093B00025016841F080510160006800F003
:10413000805012901F48016841F4404101600068BE
:10414000022400F4404012900120009000040190ED
:104150008001CDE90640042008906420CDE90904DF
:104160000B9468460C94FEF7DBFA00B1FEE70F20D3
:10417000CDE90D044FF48050CDE90F5003210DA877
:104180001195FEF79FF900B1FEE7FEF769FA4FF4CB
:104190007A71B0FBF1F0FEF7B3FC0420FEF7A4FC4B
:1041A00000220F21501EFEF749F913B030BD000068
:1041B00040380240007000400F48016841F470012F
:1041C00001600E48016841F0010101600C4A0021C4
:1041D0001160026822F4102222F080720260031D36
:1041E000084A1A60026822F48022026006480160D0
:1041F000064958060860704788ED00E00038024024
:1042000008380240103000240C38024008ED00E06D
:104210000148FEF7E6BD000018010020F0B4026876
:104220002A4BDFF8ACC02B4D2B4E2C4C984218BFBC
:10423000B0F1804F07D0604518BFA84203D0B0420C
:1042400018BFA04203D14F6822F070023A4398424F
:1042500018BFB0F1804F25D0604518BFA84221D0CB
:10426000B04218BFA0421DD0A0F1804CBCF5A03CCC
:104270001CBFA0F1804CBCF5A23C13D0A0F1804C37
:10428000BCF5A43C1CBFA0F1804CBCF5C05C09D0BF
:10429000A0F1804CBCF5E05C1CBFA0F1804CBCF5EB
:1042A000005C05D1D1F80CC022F440724CEA020245
:1042B00002608A68C2620A688262984212BFA042A3
:1042C0000969016301214161F0BC704700000140B0
:1042D0000004004000080040000C004000040140C1
:1042E0000148FEF77DBE00001C09002010B5806B60
:1042F0000021C185C184FEF772FE10BD10B5806B30
:104300000168496990F83920C1F3C01100234FF0CA
:10431000200C212A08D139B1C3840168CA6822F06F
:10432000C002CA6080F839C001684A6990F83A4012
:10433000C2F38012222C0CD15AB1C385CA6822F470
:104340009072CA6001684A6922F001024A6180F8ED
:104350003AC0C16B41F01001C163FEF740FE10BDD1
:1043600010B50146806B0968096811F4807F13D18C
:104370000021C1850168CA6822F48072CA600168A0
:104380004A6922F001024A6101684A6922F040024A
:104390004A61202180F83A10FFF7A8F810BD10B547
:1043A000806BFFF7A4F810BD10B590F83A102229E1
:1043B0001CBF022010BD8168B1F5805F23D0016968
:1043C000002901682FD0496801F07F02816A4B1CE7
:1043D00083620A70C18D491E0904090CC1851CBF86
:1043E000002010BD0168CA6822F49072CA6001689A
:1043F0004A6922F001024A61202180F83A10FFF751
:1044000075F8002010BD0269816A002A02685268AE
:1044100014BFD2B2C2F308020A80816A14BF491CD9
:10442000891C8162D6E74A68816A4B1C83620A70E4
:10443000D0E700002DE9F041044600680169E26818
:1044400021F44051114301612068C1682369A268C9
:10445000D4F81CC01A43636921F4037143EA0C03C6
:1044600021F414411A431143C16020684169A269D3
:1044700021F4407111434161E0693226B0F5004FEB
:10448000B94ABA49BA4D20685DD0884218BF9042F7
:1044900040F01181FEF7FAF800EBC00101EB0010CB
:1044A00061688900B0FBF1F7FEF7F0F800EBC0019E
:1044B00001EB001061688900B0FBF1F0A5FB001072
:1044C00040096FF01801484307EB800006EB00102D
:1044D000A5FB0010400900F0F007FEF7D7F800EB4D
:1044E000C00101EB001061688900B0FBF1F0A5FB91
:1044F0000010400907EB0017FEF7C8F800EBC001F9
:1045000001EB001061688900B0FBF1F8FEF7BEF81E
:1045100000EBC00101EB001061688900B0FBF1F015
:10452000A5FB001040096FF01801484308EB80001C
:1045300006EB0010A5FB00102168C0F343103844BF
:104540008860BDE8F081884218BF904259D1FEF7DB
:104550009DF800EBC00101EB001061684900B0FB61
:10456000F1F0A5FB001040090701FEF78FF800EB02
:10457000C00101EB001061684900B0FBF1F8FEF7E3
:1045800085F800EBC00101EB001061684900B0FB49
:10459000F1F0A5FB001040096FF01801484308EB4B
:1045A000800006EBC000A5FB0010400900F0F800F9
:1045B00007EB4007FEF76AF800EBC00101EB0010C3
:1045C00061684900B0FBF1F8FEF760F800EBC0014C
:1045D00001EB001061684900B0FBF1F0A5FB001091
:1045E00040096FF01801484308EB800006EBC0005B
:1045F000A5FB00102168C0F3421038448860BDE874
:10460000F081FEF733F800EBC00101EB00106168A8
:104610004900B0FBF1F0A5FB001040090701FEF7CF
:1046200025F800EBC00101EB001061684900B0FB08
:10463000F1F8FEF71BF800EBC00101EB0010616818
:104640004900B0FBF1F0A5FB001040096FF0180124
:10465000484308EB800006EBC000A5FB00104009B2
:1046600000F0F80007EB4007FEF700F800EBC00190
:1046700001EB001061684900B0FBF1F8FDF7F6FFAF
:1046800000EBC00101EB001061684900B0FBF1F0E4
:10469000A5FB001040096FF01801484308EB8000AB
:1046A00006EBC000A5FB00102168C0F3421038449F
:1046B0008860BDE8F081FDF7D9FF00EBC00101EB98
:1046C000001061688900B0FBF1F7FDF7CFFF00EB48
:1046D000C00101EB001061688900B0FBF1F0A5FB9F
:1046E000001040096FF01801484307EB800006EB0B
:1046F0000010A5FB0010400900F0F007FDF7B6FF21
:1047000000EBC00101EB001061688900B0FBF1F023
:10471000A5FB0010400907EB0017FDF7A7FF00EB12
:10472000C00101EB001061688900B0FBF1F8FDF7F2
:104730009DFF00EBC00101EB001061688900B0FB38
:10474000F1F0A5FB001040096FF01801484308EB99
:10475000800006EB0010A5FB00102168C0F3431099
:1047600038448860BDE8F081001401400010014029
:104770001F85EB512DE9F04104460068069D1E4659
:1047800000681746884631EA00000CBF012000206F
:10479000B84226D1B5F1FF3F1AD025B1FDF7A8FDEB
:1047A000801BA84214D92068C16821F4D071C1606F
:1047B0002068416921F001014161202084F839001D
:1047C00084F83A00002084F838000320BDE8F08126
:1047D0002068006838EA00000CBF01200020B842C1
:1047E000D8D00020BDE8F0810B4800680168C1F313
:1047F0000011002908BF704708B5016841680091A1
:10480000016840680448FEF7AEFB04480068406851
:1048100003490120087008BD5C0900207C0A0020C3
:10482000820000200148FEF7DBBB00009C0900204D
:104830000A4800680168C1F30011002908BF7047E9
:1048400008B5016841680091016840680348FEF7B7
:104850008AFB03490120087008BD0000DC09002024
:1048600081000020FEE700002DE9F041154C0646CE
:1048700004F1280094B090E8AF118DE8AF11D4E9AD
:104880001201CDE9080169463046FCF765FD04F1E7
:1048900050000DF1280E90E8AF118EE8AF11D4E969
:1048A0001C01CDE912010AA93046FCF755FD30463E
:1048B000FDF761F902213046FCF7C2FC14B000207C
:1048C000BDE8F0816C6900082DE9F0410546102132
:1048D0002648FDF7FFFC01281CBF0120BDE8F08140
:1048E0000122234F80213846FDF7FDFC01224021A3
:1048F0003846FDF7F8FC002280213846FDF7F3FC2E
:10490000052000F03BFD002405F001060022802177
:104910003846FDF7E8FC2EB1012240213846FDF76C
:10492000E2FC04E0002240213846FDF7DCFC4FF4B5
:10493000967000F051FD012280213846FDF7D3FC2E
:104940004FF4967000F048FD601C6D08C4B2082C4E
:10495000DAD3012240213846FDF7C5FC012280212F
:104960003846FDF7C0FC0020BDE8F0810008024099
:1049700000000240FEE703B401984100009850EAAD
:10498000C12018BF04204A0D18BF40F0010040F2BA
:10499000FF72B2EB515F08BF40F00200012808BF70
:1049A000052002B07047000010B52F499FED2C1B69
:1049B0002DED020B84B0059820F000408842DCBF4A
:1049C00000209DED040B32DD2849884209D104986E
:1049D00040B94FF0010000F0AFFC00F07DFC06B0E4
:1049E00010BD05DB9DED040B00F06AFC06B010BDA8
:1049F00068469DED040B00F07BF810F0030011D029
:104A0000012818D09DED021B9DED000B02281AD045
:104A100000F08AFA51EC100B81F0004106B041EC35
:104A2000100B10BD9DED021B9DED000B012000F051
:104A3000AFFB06B010BD9DED021B9DED000B00F01D
:104A400073FA06B010BD012000F0A2FB51EC100B70
:104A500081F0004106B041EC100B10BD00000000D9
:104A60000000000000000000FB21E93F0000F07F93
:104A700000B52DED048BB0EE409AF0EE609A83B055
:104A800051EC190BFBF7EEFE41EC180B18EE100A77
:104A900018EE901A8DED008B002818BF01200843F6
:104AA00020F00040C0F17F6000F1E040C00F14D062
:104AB00019EE101A19EE900A8DED009B002918BF0F
:104AC0000121084320F00040C0F17F6000F1E04088
:104AD000C00F04BF012000F02FFCB0EE480A03B065
:104AE000F0EE680ABDEC048B00BD00000000000081
:104AF0002DE9F14F04462DED020B2DED088B8AB008
:104B00009FEDE70B80ED020B139EE74826F0004572
:104B100085420ADC9DED120B002084ED000B0AB0EB
:104B2000BDEC088B03B0BDE8F08FE0489FEDE0AB33
:104B30009FEDE1BBA84247DDE14F9FEDE39B9FED79
:104B4000E48B9DED120B53EC1A2B51EC100B002E45
:104B50001CDDFBF79FFC41EC100BBD4208D053EC71
:104B60001B2B51EC100BFBF795FCC4E900010BE08B
:104B700053EC192B51EC100BFBF78CFC53EC182B5E
:104B8000FBF788FCC4E900010120C8E7FBF7E1FB63
:104B900041EC100BBD4208D053EC1B2B51EC100B19
:104BA000FBF7D7FBC4E900010BE053EC192B51ECE8
:104BB000100BFBF7CEFB53EC182BFBF7CAFBC4E939
:104BC00000014FF0FF30AAE7C348A84279DB9DED12
:104BD000120B51EC100B00F019FC41EC180B9FED7F
:104BE000C00B53EC102BFBF75BFC9FEDBF1B53EC92
:104BF000112BFBF7AEFBFBF7AAFE0746FBF796FE71
:104C000041EC190B53EC1A2BFBF74AFC53EC182B15
:104C1000FBF743FC41EC180B53EC1B2B51EC190B2D
:104C2000FBF73EFCDFF8C8A241EC100B4FEA155829
:104C30000125FA4453EC102B51EC180BFBF72AFC1E
:104C4000032DC4E900013DD0C1F30A5005EB451125
:104C5000A8EB00001139814234DA0AEB051BB0EEF3
:104C600048AA9BED000BF0EE68AA53EC102B51EC18
:104C7000190BFBF715FC41EC1B0B51EC1A0B53EC19
:104C80001B2BFBF707FC41EC180B51EC1A0B53ECF8
:104C9000182BFBF7FFFB53EC1B2BFBF7FBFB9BEDF0
:104CA000020B41EC1A0B53EC102B51EC190BFBF7D8
:104CB000F7FB53EC1A2BFBF7EDFB41EC100B6D1CD3
:104CC000B8E70EE0002EA8BF3846BFF628AF94ED37
:104CD000000B51EC100B81F00041C4E90001784257
:104CE0001DE7C6F3130040F4801EC6F30A50A0F27D
:104CF000F530471100F01F05C5F12000DDF848B080
:104D000008900020069007900520EC467949002D78
:104D100007EB0002794408BF51F8221009D051F87E
:104D2000223001EB8201AB404A68089922FA01F176
:104D30001943A1FB0E26A1FB0B131A449A4234BF60
:104D40000123002303EB06080CEB8003D3E901A643
:104D50000E448E4234BF0121002192448A4411B195
:104D6000924502D903E0924501D2012100E00021E1
:104D7000C3E901A641444CF82010011EA0F1010036
:104D8000C4DC029800F10050850F0298DDE903674A
:104D90008000DDF81480FBF7C9FD41EC1A0B3046AA
:104DA000FBF75FFC9FED541B53EC112BFBF778FBDB
:104DB00041EC1B0B3846FBF754FC9FED511B53ECA9
:104DC000112BFBF76DFB41EC180B4046FBF749FC40
:104DD0009FED4D1B53EC112BFBF762FB41EC190BC4
:104DE00051EC180B53EC192BFBF7B3FA53EC1B2BBC
:104DF000FBF7AFFA53EC1A2BFBF7ABFACDE908013E
:104E0000002008909DED080B53EC1A2B51EC100B71
:104E1000FBF740FB53EC1B2BFBF73CFB53EC182B35
:104E2000FBF738FB53EC192BFBF737FB9FED381BD7
:104E300053EC112BFBF734FB9FED370B41EC180BB8
:104E400053EC102B9DED080B51EC100BFBF728FBDE
:104E500053EC182BFBF77DFA9FED310B41EC180B4F
:104E600053EC102B9DED080B51EC100BFBF718FBCE
:104E700053EC182BFBF76DFA41EC100B139810F064
:104E8000004F06D06D4251EC100B81F0004141EC17
:104E9000100B284684ED000B41E6000000000000E6
:104EA0000000000000000000FB21E93F7CD9024027
:104EB00000004054FB21F93F3163621A61B4D03DD8
:104EC000FB21F93F000000000000601A61B4D03DF2
:104ED0007370032E8A19A33BFB21394100000000A7
:104EE00083C8C96D305FE43F000000000000E03F70
:104EF000021E0000501D0000000000000000103ED7
:104F0000000000000000103C000000000000103A0B
:104F1000182D4454FB21F93D3326A611460B113CB4
:104F200000000054FB21F93D10B52DED040B2DEDD3
:104F3000088B82B0B0EE419AF0EE619A0B9820F0A7
:104F400000449FED4BABB4F1795F11DA9DED0A0B94
:104F500051EC100BFBF7FBFC002801BFB0EE4A0A36
:104F6000F0EE6A0A02B0BDEC088B04BF04B010BDBD
:104F70009DED0A0B53EC102B51EC100BFBF790FA44
:104F800041EC180B3C480621B0EE480AF0EE680AE6
:104F9000784400F081F853EC182B51EC100BFBF720
:104FA0007FFA9DED0A0B41EC1B0B53EC192B51ECD6
:104FB000100BFBF775FA41EC190B53EC1B2B51EC62
:104FC000180BFBF76DFA53EC192BFBF763FA9FED07
:104FD0002C0B41EC190B53EC102B51EC180BFBF77D
:104FE0005FFA41EC100B2848844210DA53EC192B7D
:104FF00051EC100BFBF74EFA53EC1A2BFBF74DFA62
:1050000041EC100B02B0BDEC088B04B010BD1F4882
:10501000A042BCBF9FED1E1B8DED001B06DBA4F55F
:1050200000100190002000909DED001B51EC100B32
:1050300053EC112BFBF72EFA9DED000B41EC180BF6
:1050400053EC102B51EC1A0BFBF724FA41EC1A0B22
:1050500053EC192B51EC180BFBF71CFA53EC1A2BE1
:10506000FBF71BFA41EC100BCCE70000000000003E
:10507000000000000000F03F741A00000000000073
:10508000000000000000E03F3333D33F0000E93F61
:10509000000000000000D23F70B504462DED028BE9
:1050A0004D1E00EBC500B0EE408AF0EE608A90ED38
:1050B000000B35F0060017D053EC182B51EC100BF9
:1050C000FBF7EEF941EC100B6D1E04EBC50090ED03
:1050D000001B51EC100B53EC112BFBF73AF941EC90
:1050E000100B35F00600E7D1022D36D0042D1CD070
:1050F000062D1CBFBDEC028B70BD53EC182B51EC80
:10510000100BFBF7CDF994ED0A1B53EC112BFBF7B9
:1051100020F953EC182BFBF7C3F994ED081B53EC63
:10512000112BFBF716F941EC100B53EC182B51EC3B
:10513000100BFBF7B5F994ED061B53EC112BFBF7A5
:1051400008F953EC182BFBF7ABF994ED040B53EC77
:10515000102BFBF7FEF841EC100B53EC182B51EC25
:10516000100BFBF79DF994ED021B53EC112BFBF791
:10517000F0F853EC182BFBF793F994ED001B53EC6C
:10518000112BFBF7E6F8BDEC028B41EC100B70BD68
:1051900031B504462DED040B2DED0A8BB0EE41BA6E
:1051A000F0EE61BA0B989DED0A0B20F00040B0F1D3
:1051B000795F0DDA51EC100BFFF7DDFB042808BF17
:1051C00000F09AF89DED0A0BBDEC0A8B05B030BDDE
:1051D00053EC102B51EC100BFBF762F941EC180B60
:1051E0009DED0A0B53EC182B51EC100BFBF758F903
:1051F00041EC190B2C48B0EE480AF0EE680A052184
:105200007844FFF749FF9FED2ACBB0EE40AAF0EEBD
:1052100060AA9CB353EC1C2B51EC190BFBF740F923
:1052200041EC1C0B53EC1A2B51EC190BFBF738F922
:105230009FED210B41EC190B53EC102B51EC1B0B88
:10524000FBF72EF953EC192BFBF724F953EC182B31
:10525000FBF726F953EC1B2BFBF71CF953EC1C2B2B
:10526000FBF718F99DED0A1B53EC112BFBF715F911
:10527000BDEC0A8B05B041EC100B30BDFFE753ECE1
:105280001A2B51EC180BFBF70BF953EC1C2BFBF70B
:1052900060F853EC192BFBF703F99DED0A1B53EC57
:1052A000112BFBF756F8E3E7FC18000000000000A4
:1052B000495555555555C5BF000000000000E03F59
:1052C00010B553EC102B51EC100BFBF742F841ECEE
:1052D000100B10BD000000009FED050B10B553EC46
:1052E000102B51EC100BFBF74DF941EC100B10BDDE
:1052F00000000000000000009FED050B10B553EC0E
:10530000102B51EC100BFBF7CBF841EC100B10BD40
:10531000000000000000001002E008C8121F08C1D1
:10532000002AFAD170477047002001E001C1121F26
:10533000002AFBD170470000014908607047000057
:105340001401002010B504460420FDF7CDFB0A48E7
:105350004FF47A71047014FB01F1012242804FF086
:10536000E020026942F0020202614161016941F0FC
:105370000101016110BD00000000002070B504466D
:1053800001F01AF9134D01280BD06888844224BF1C
:10539000B4FBF0F000F0A2FB6888B4FBF0F100FB76
:1053A00011444FF47A7004FB00F14FF0E024002028
:1053B00063692A7801FB02FCA269A1699142FCD0D1
:1053C00026BF5D1A2A44521A10440A466045F4D397
:1053D00070BD00000000002030B44FF0E024002138
:1053E0006369094A127800FB02FCA269A069904235
:1053F000FCD026BF1D1A2A44121A114402466145E8
:10540000F4D330BC704700000000002082B0CDE92A
:10541000000121F0004001909DED000B02B051EC25
:10542000100B7047FCF772FFFEF778FEFEF7E2FA0A
:10543000FEF7F2F9FEF74EF9FEF778F9FEF7A2F95A
:10544000FEF7CEF9FEF776FBFEF7ACFBFEF7E4FBCA
:10545000FEF708FCFEF72CFCFEF750FCFEF7F0F818
:105460006420FFF76FFF0D480068C16841F010012C
:10547000C160EF20FFF728FA6420FFF77FFF0020CC
:10548000FFF722FA40F6B830FFF778FF1520FFF754
:105490001BFAFEF7FDF900F00BF8FEE7DC0900202F
:1054A00010B5002808BF012000F018FB002010BD37
:1054B00010B500F0B1FB002010BD10B501291CBFD4
:1054C000002010BD03220021012000F0AFFC0400E9
:1054D00004D000231A46194600F0E8FD204610BD0E
:1054E00038B584464FF00004EFF30580009490B186
:1054F0006946604600F0C4FE01281CBFFF2038BD8D
:10550000009888B109494FF080500860BFF34F8F71
:10551000BFF36F8F08E000231A461946604600F07B
:10552000C5FD012818BFFF24204638BD04ED00E06A
:1055300008B500220092002804BF802008BD002288
:105540004B1C002B0CBF4FF0FF32002900D00A1E6D
:10555000EFF3058131B16A46002100F0E0FE012839
:1055600008D005E00023194600F084FC01280BD088
:10557000FF2008BD009838B104494FF08050086002
:10558000BFF34F8FBFF36F8F002008BD04ED00E025
:1055900010B501F011F8012808BF10BDBDE810409A
:1055A00000F02EBC00B50B46B0F90820002183B0F6
:1055B000842A18BFD11C02AACDE90012018A8AB23E
:1055C000D0E9001000F03CFF012814BF0020029831
:1055D00003B000BD2DE9F041194E0F460446F568B1
:1055E0003068001D00F0A2F948B93068012190F838
:1055F0002C0001FA00F0316921EA00003061B4F1B9
:10560000FF3F07D137B13068BDE8F041011D0D48BB
:1056100000F0C7B930682C44AC424460306800F1F7
:10562000040104D2B06BBDE8F04100F09FB9706B8B
:1056300000F09CF9B06AA04288BFB462BDE8F08176
:10564000C8000020F04800201B4E1C4DDFF8709071
:10565000A6F1C8074FF08058686810B3286B401C4B
:105660002863306800280CBF0124002401F0B0F842
:10567000A4B900F0A3F9F068C468201D00F056F941
:10568000A868401EA8606868401E686000F0B6F90F
:10569000206B00F0C9F9204600F0C6F968680028C0
:1056A000DCD138680128D7D9C9F80080BFF34F8F03
:1056B000BFF36F8FD0E70000DC480020C800002057
:1056C00004ED00E010B415490A68824238BF114663
:1056D000FAD34B6803EB010C844503D140681844AE
:1056E00048600846436803EB000C944518BF02600D
:1056F0000ED1DFF82CC0DCF800C0624508BFC0F84E
:1057000000C005D052681A4442600A6812680260FC
:10571000814218BF086010BC70470000B400002030
:10572000A400002009484068B0F1FF3F4FF050004E
:1057300080F3118804D0BFF34F8FBFF36F8FFEE764
:10574000BFF34F8FBFF36F8FFEE70000BC00002058
:1057500070B5044600F032F994F94550002D0DDD86
:10576000606A58B104F1240000F0F8FF002818BF67
:1057700000F0DAF9681E45B2002DF1DC4FF0FF367B
:1057800084F8456000F03AF900F018F994F94450B3
:10579000002D0DDD206958B104F1100000F0DEFF8E
:1057A000002818BF00F0C0F9681E45B2002DF1DCDA
:1057B00084F84460BDE8704000F020B92DE9F04164
:1057C0000446002500F060FA444E002706F110025E
:1057D0003068002818BFF0681DD141494FF470505F
:1057E00011F0070F06D0C81D20F007013C48081A29
:1057F000C0F5705008440838C2E9001720F00700CF
:1058000030604760431A0760C1E90003B3604FF09E
:1058100000407360F06004424FD1002C4DD004F181
:10582000080111F0070F0FD001F00700C0F10800C8
:10583000014411F0070F07D0502080F31188BFF307
:105840004F8FBFF36F8FFEE7002936D0706881421B
:105850009CBF2448146830D862688A4205D2226806
:10586000002A1CBF20461446F6D13268944224D048
:10587000026802F10805226802606068421A102A74
:105880000FD9601810F0070F07D0502080F311884F
:10589000BFF34F8FBFF36F8FFEE742606160FFF78A
:1058A00011FF61687068401A7060B268824288BFF8
:1058B000B060F0680843C4E9007000F089FF15F09B
:1058C000070F04BF2846BDE8F081502080F31188FF
:1058D000BFF34F8FBFF36F8FFEE70000A4000020DF
:1058E000140C0020B40000200449086818B10868AE
:1058F000826C521C8264086870470000C800002057
:105900004FF0807C40F804CC21F0010140F8081CE5
:10591000054B40F80C3C40F8202C6FF0020240F898
:10592000242C44387047000025570008D0E9013284
:1059300001699A60D0E901235A604A68824204BF33
:1059400082684A60002202610868401E0860704751
:1059500000F108014FF0FF32C0E90112C16001619E
:1059600000210160704700210161704710B4D1F837
:1059700000C0BCF1FF3F0CBF026900F1080205D076
:1059800053681C68644598BF1A46F9D953684B6040
:1059900099608A60516008610168491C016010BC0F
:1059A000704742684A6093688B6093685960916061
:1059B00008610168491C016070470000502080F3B5
:1059C0001188BFF34F8FBFF36F8F0A494868401C9F
:1059D0004860012818BF70470748006810F0FF0FA3
:1059E00008BF7047502080F31188BFF34F8FBFF37B
:1059F0006F8FFEE7BC00002004ED00E00949486815
:105A000038B1401E486018BF7047002080F31188ED
:105A10007047502080F31188BFF34F8FBFF36F8F13
:105A2000FEE70000BC000020002808BF704770B5EA
:105A3000144DA0F1080450F8040CE968084207D19D
:105A4000502080F31188BFF34F8FBFF36F8FFEE7B5
:105A500022683AB1502080F31188BFF34F8FBFF313
:105A60006F8FFEE78843606000F00EF96068696838
:105A7000084468602046FFF725FEBDE8704000F04E
:105A8000A7BE0000A400002010B5FAF709FC1149D8
:105A900010280ED300F1E02090F8F0030A7882423B
:105AA00007D9502080F31188BFF34F8FBFF36F8F5A
:105AB000FEE709480068896800F4E060884298BF02
:105AC00010BD502080F31188BFF34F8FBFF36F8F4D
:105AD000FEE70000BC0000200CED00E010B5A8B10E
