:020000040800F2
:10000000704E0020A9020008514100080139000883
:100010004D410008790C00089150000800000000D4
:10002000000000000000000000000000ED010008DA
:100030003F0F0008000000004102000825470008AB
:10004000C3020008C3020008C3020008C30200087C
:10005000C3020008C3020008C3020008C30200086C
:10006000C3020008C3020008C3020008E50D00082F
:10007000F50D0008C3020008C3020008C30200080F
:10008000050E0008C3020008C3020008C3020008EE
:100090007D0C0008C3020008C3020008C302000868
:1000A000C3020008C3020008C3020008C30200081C
:1000B000C3020008C302000871480008C302000818
:1000C000C3020008C3020008C3020008C3020008FC
:1000D000C3020008DD4F00083550000845500008F5
:1000E000C3020008C3020008C3020008C3020008DC
:1000F000C3020008C3020008C3020008C3020008CC
:10010000C3020008C3020008C3020008C3020008BB
:10011000C3020008E9490008C3020008C30200083E
:10012000150E0008C3020008250E0008C3020008CF
:10013000C3020008C3020008C3020008C30200088B
:100140008D0C0008C3020008C3020008C3020008A7
:10015000C3020008C3020008C3020008C30200086B
:10016000C3020008C3020008C30200089D0C000877
:10017000C3020008C30200080000000000000000E5
:10018000C3020008C3020008C3020008C30200083B
:10019000C3020008C302000800000000C3020008F8
:1001A000C3020008C30200080000000000000000B5
:1001B000C30200080000000000000000C3020008A5
:1001C000C3020008C3020008C3020008C3020008FB
:1001D000C3020008C3020008DFF80CD000F05AFB8D
:1001E0000048004781520008704E00202B4B1968D0
:1001F0000868B0E8F04F80F30988BFF36F8F4FF0C5
:10020000000080F311887047000000000648006875
:10021000006880F3088862B661B6BFF34F8FBFF302
:100220006F8F00DF00BF00BF08ED00E0DFF80C00BB
:10023000016841F470010160704700BF88ED00E083
:10024000EFF30980BFF36F8F144B1A681EF0100F85
:1002500008BF20ED108A20E9F04F106008B44FF07D
:10026000500080F31188BFF34F8FBFF36F8F05F0FD
:10027000D9FE4FF0000080F3118808BC19680868A7
:10028000B0E8F04F1EF0100F08BFB0EC108A80F3FA
:100290000988BFF36F8F704700BF00BF4001002087
:1002A000EFF3058070470000064880470648004786
:1002B000FEE7FEE7FEE7FEE7FEE7FEE7FEE7FEE716
:1002C000FEE7FEE70D480008D90100082DE9F05FC0
:1002D0000546002092469B468846064681464024B5
:1002E0001BE0284641464746224600F01CFA53468A
:1002F0005A46C01A914110D311461846224600F0C2
:1003000003FA2D1A67EB01084F462246012000210F
:1003100000F0FAF917EB00094E41201EA4F1010488
:10032000DFDC484631462A464346BDE8F09F40EAB6
:1003300001039B0703D009E008C9121F08C0042A63
:10034000FAD203E011F8013B00F8013B521EF9D24A
:1003500070472DE9FE4F804681EA0300C00F0C462E
:10036000009021F0004123F00045B8EB0200A941C4
:1003700005D24046214690461C460B46024623F0D5
:100380000040104347D0270DC7F30A00C3F30A51BA
:100390000290401A019040286BDAC3F3130040F436
:1003A000801B0098924620B10023D2EB030A63EB36
:1003B0000B0B01985946C0F14002504600F0A4F9D9
:1003C00006460D4650465946019A00F0BCF910EB1E
:1003D00008006141002487EA115284EAE7731A4356
:1003E00040D0009A62B3019A012A4FEA075215DC05
:1003F000001B61EB02014FF0004202EA0752CDE917
:100400000042001C41F5801132462B4600F0F3F902
:1004100003B0BDE8F08F40462146F9E7001B61EBD1
:100420000201001C41F5801300185B412018A2F561
:10043000001747EB030140EAD570B6196D4111E092
:100440006D084FEA360645EAC0754FEA0752001BB1
:1004500061EB0201001C41F5801149084FEA3000B0
:100460000019514132462B4603B0BDE8F04F00F071
:10047000B3B90098012240000023D0EB020263EBE5
:10048000E073009821464FEAE074B8EB000061EB9E
:100490000401E9E783F000435BE781F0004158E79E
:1004A0002DE9FE4F81EA030404F0004421F00041ED
:1004B00000944FF0000B23F0004350EA01045ED09B
:1004C00052EA03045BD0C3F30A54C1F30A552C4427
:1004D000A4F2F3340194A0FB0254C1F3130141F4DC
:1004E0008011C3F3130343F4801301FB024400FBA8
:1004F000034E840A970A44EA815447EA8357A4FBCF
:10050000076802958D0A05FB07854FEA932C04FBCB
:100510000C542705029D4FEA065847EA1637B5EBFB
:1005200008056EEB070C870E920E47EA811742EA28
:100530008312A7FB0201B6EB0B0164EB00042B0D49
:1005400043EA0C335E1844EB1C50DA465146E7FB95
:100550000201C5F313044FEA0B3343EA14534FEA85
:100560000432019C43EA0603A4F10C040294009CAB
:10057000CDE900B400F03FF903B0BDE8F08F0020F2
:100580000146F9E72DE9F04D81EA030404F0004B40
:1005900021F0004514464FF0000A23F0004150EAD4
:1005A000050220D054EA01021DD0C5F30A570246C5
:1005B000C5F31303C1F31300C1F30A5640F48015C9
:1005C00043F48013A7EB0608101BD64608F2FD384B
:1005D00073EB050002D308F1010801E092185B41BA
:1005E000B8F1000F03DA00200146BDE8F08D0020CD
:1005F0004FF48011064684460EE0171B73EB050787
:1006000005D3121B63EB050306434CEA010C4908B2
:100610004FEA300092185B4150EA0107EDD152EAEF
:10062000030012D082EA040083EA0501084305D0E2
:10063000101BAB4106D20122002306E000224FF03E
:10064000004302E06FF0010253101AEB06004CEB7E
:10065000085110EB0A0041EB0B01BDE8F04D00F032
:10066000BBB80EB5C10F80EAE0700844CA0700218C
:1006700040F233438DE80E000A460B4600F0BBF80B
:1006800003B000BD0EB540F2334102910021CDE927
:1006900000110A460B4600F0AEF803B000BD0000A2
:1006A00030B5041E71F1000404DB4FF000444042F9
:1006B00064EB0101141E73F1000405DB1C464FF0CE
:1006C0000043524263EB04038B4208BF824230BDB9
:1006D00001F0004330B421F0004150EA010206D09D
:1006E0000A0DA2F56072C1F31301002A02DC30BCCE
:1006F00000207047440F44EAC104C100E01830BC38
:1007000000EBC25000F031B8202A04DB203A00FA96
:1007100002F1002070479140C2F1200320FA03F358
:10072000194390407047202A04DB203A21FA02F056
:100730000021704721FA02F3D040C2F1200291401B
:10074000084319467047202A06DBCB17203A41FAA6
:1007500002F043EAE07306E041FA02F3D040C2F14E
:10076000200291400843194670470029A8BF7047EE
:10077000401C490008BF20F00100704710B4B0FAD7
:1007800080FC00FA0CF050EA010404BF10BC704772
:1007900049B1CCF1200421FA04F411FA0CF118BF8C
:1007A000012121430843A3EB0C01CB1D4FEA00615B
:1007B0004FEA102042BF002010BC704700EBC3502E
:1007C00010440029A4BF10BC7047401C490008BF5A
:1007D00020F0010010BC704710B5141E73F1000426
:1007E00008DA401C41F1000192185B411A4301D123
:1007F00020F0010010BD2DE9F04D92469B4611B14D
:10080000B1FA81F202E0B0FA80F220329046FFF7AE
:100810007BFF04460F4640EA0A0041EA0B015346BB
:100820005A46084313D0114653EA010019D0C8F1C3
:1008300040025046FFF777FF05460E4650465946A0
:100840004246FFF761FF084305D0012004E020463F
:100850003946BDE8F08D0020054346EAE0762C439A
:1008600037430A986305E40AA0EB08000022FD0A5A
:1008700044EA47540A3002D500200146E9E7010561
:1008800010196941DDE9084500196941BDE8F04DDD
:10089000A2E70000064C074D06E0E06840F00103C7
:1008A00094E8070098471034AC42F6D3FFF798FC61
:1008B000646E0008846E000830B58C1810F8012BA7
:1008C00012F00F0301D110F8013B120906D110F804
:1008D000012B03E010F8015B01F8015B5B1EF9D10D
:1008E00001E001F8013B521EFBD1A142E6D30020FA
:1008F00030BD70B50546AC6B206C00F0500050BBAD
:10090000206C40F4007020642068806800F0405043
:10091000E8B9A069D8B92068C06A00F4700020B1B5
:100920002068806800F4806088B92068406820F002
:10093000200021684860206C20F480702064206CC6
:1009400000F4805018B9206C40F00100206420466B
:1009500000F0E4FB03E0A06BC16C2846884770BD43
:1009600070B50546AC6B40202064606C40F004001C
:100970006064204600F0D4FB70BD70B50446A56BE2
:10098000284600F0CCFB70BD54494A6822F440323E
:100990004A604A6843681A434A600268526822F40F
:1009A000807203685A6002685368026943EA02224F
:1009B00003685A600268526822F0407203685A6005
:1009C0000268526883681A4303685A600268926832
:1009D00022F4006203689A6002689268C3681A434E
:1009E00003689A603E4B826A9A4218D00268926805
:1009F00022F0706203689A6002689268836A1A4300
:100A000003689A600268926822F0405203689A6014
:100A100002689268C36A1A4303689A600BE002682E
:100A2000926822F0706203689A600268926822F00D
:100A3000405203689A600268926822F002020368DA
:100A40009A6002689368826943EA420203689A6086
:100A5000026AA2B10268526842F4006203685A60F6
:100A60000268526822F4604203685A600268536860
:100A7000426A521E43EA423203685A6005E0026845
:100A8000526822F4006203685A600268D26A22F453
:100A900070020368DA620268D36A828B521E43EAEC
:100AA00002520368DA620268926822F400720368F4
:100AB0009A6002689368026B43EA422203689A6074
:100AC0000268926822F4806203689A600268936800
:100AD000426943EA822203689A607047002301401A
:100AE0000100000F02780A7042785201837842EACE
:100AF000E3024A80C278837803F0070342EA0322C4
:100B00008A8002799200437942EAA312CA8042792C
:100B10009206D20D837942EA53124A81827902F019
:100B200007020A72C2790A737047000010B58AB0D2
:100B30000446282208496846FFF7F9FB6946204623
:100B400000F0CCFC204601F0FEF80221204600F027
:100B500019FC00200AB010BDE06C00087CB5054609
:100B60000C46012001900020009014B9264908701D
:100B70004880002C17DD01202349087000EE104A40
:100B8000B8EE400ADFED210A80EE201A9FED200A20
:100B900031EE400ADFED1F0A80EE201ABCEEC10ADA
:100BA00010EE100A4880002C18DA0220164908704E
:100BB000604200EE100AF8EEC00A9FED141A80EEB3
:100BC000810ADFED130A30EE600ADFED120A80EED3
:100BD000201ABCEEC10A10EE100A48800A4840886C
:100BE000C0F304200849097840EA8110C0B28DF8AA
:100BF0000000054880788DF8010001AB6A4606497F
:100C0000284600F0D5FB7CBD6C000020666666407F
:100C1000000000000AD7A33C4C00002030B52DEDA9
:100C2000028B83B00546B0EE408A0120029000207E
:100C300001909FED0E0A38EE000ADFED0D0A80EEFE
:100C4000201ABCEEC10A10EE100A84B2200A8DF8F8
:100C50000400E0B28DF8050002AB01AA0549284660
:100C600000F0A6FB03B0BDEC028B30BD0AD7A34356
:100C70000AD7233C3400002000BFFEE710B502482D
:100C800000F093FD10BD0000080D002010B50248D3
:100C900000F08BFD10BD0000300D002010B50248A3
:100CA00000F083FD10BD0000580D002070B52DED43
:100CB000048B05460C4620784B2873D16078592860
:100CC000FBD1A0784B287ED1E0784A287BD12079CF
:100CD000772878D1A079C0092870A079C0F3801056
:100CE0006870A079C0F34010A870A079C0F300101C
:100CF000E870A079C0F3C0002871A07900F001006D
:100D00006872E07980096871E079C0F34010A871D9
:100D1000E079C0F3C100E871E07900F007002872C3
:100D2000207AE872607A2873A07A6873E07AC00843
:100D3000A873E07A00F00700A872207BE873607B5C
:100D40002874A07B6874E07BFFF79CFC41EC190BD6
:100D50009FED1E0B53EC102BFFF7A2FB41EC180B81
:100D6000FFF7B6FC6861687920B1012803D002283A
:100D700003D101E002E001E000E000BF00BFE8793C
:100D800030B1012805D0022804D0032804D102E0A4
:100D900003E002E001E000E000BF00BF287A052880
:100DA0000BD200E00FE0DFE800F0030405060700C7
:100DB00004E003E002E001E000E000BF00BF00202B
:100DC000BDEC048B70BD0120FAE700009A99999957
:100DD0009999A93F10B50446204600F0B4FF0020C1
:100DE00010BD000010B5024801F07AF810BD0000F7
:100DF000880B002010B5024801F072F810BD000009
:100E0000A80C002010B5024801F06AF810BD0000DF
:100E1000480C002010B5024801F062F810BD000037
:100E2000B009002010B5024801F05AF810BD0000CA
:100E3000E80B00200146087810381823B0FBF3F2C5
:100E40000848805CC865032A05D908686FF3090063
:100E5000001D886503E008686FF309008865886DE8
:100E600070470000E46D0008014600208A6A8B6923
:100E7000CBB932B1012A0DD0022A03D0032A10D1F6
:100E80000EE000BFCB6A03F08073B3F1807F00D126
:100E9000012007E0CB6AB3F1C07F00D1012001E05F
:100EA00000E000BF34E08B69B3F5005F1AD132B1C6
:100EB000012A07D0022A03D0032A11D10AE000BF79
:100EC00001200EE0CB6A03F08073B3F1807F00D184
:100ED000012006E0CB6AB3F1C07F00D1012000E021
:100EE00000BF15E032B1012A05D0022A04D0032A3E
:100EF0000CD103E000BF00BF012008E0CB6A03F083
:100F00008073B3F1807F00D1012000E000BF00BFFB
:100F1000704730B50468246824F4802405682C6088
:100F2000046863608468402C04D10468A26004688B
:100F3000E16003E00468A1600468E26030BD7047CE
:100F40000246002002E0135C0B54401C0D28FADB23
:100F5000F6EE001A80EE212AFCEEC21A11EE900A7B
:100F60004873F5EE001A80EEA12AFCEEC21A11EECB
:100F7000900A8873DFED051A81EE212AFCEEC21A71
:100F800011EE900AC873002070470000CDCC4C3D94
:100F900038B502460020009000BF92F83C000128BE
:100FA00001D1022038BD012082F83C0000BF086852
:100FB000092816D91068C0680C780A3C04EB44056F
:100FC0000724AC40A0431468E0600C780A3C04EBB2
:100FD00044048868A0401468E46820431468E06012
:100FE00013E0106800690C7804EB44050724AC405A
:100FF000A043146820610C7804EB44048868A04086
:10100000146824692043146820614868072817D2AF
:101010001068406B0C79641E04EB84051F24AC40FF
:10102000A04314686063088880B20C79641E04EBE6
:101030008404A0401468646B20431468606331E04A
:1010400048680D2817D21068006B0C79E41F04EB78
:1010500084051F24AC40A04314682063088880B234
:101060000C79E41F04EB8404A0401468246B204333
:101070001468206316E01068C06A0C790D3C04EB1C
:1010800084051F24AC40A0431468E062088880B245
:101090000C790D3C04EB8404A0401468E46A2043FE
:1010A0001468E062194B1A4C1068A04206D1086817
:1010B000122803D1586840F480005860144C10681E
:1010C000A0421CD10868122802D00868112816D145
:1010D000586840F400005860086812280FD10D4885
:1010E00000680D4CB0FBF4F000EB80004000009075
:1010F00002E00098401E009000980028F9D100BF3F
:10110000002082F83C0000BF00BF4BE700230140F5
:10111000002001408801002040420F0070477047C6
:101120007047000070B5044600250CB9012070BD61
:101130001549A06A884200D000BF206C30B9002059
:10114000606484F83C00204600F020F8206C00F039
:10115000100088B9206C20F4885040F00200206410
:101160002046FFF711FC00206064206C20F0020094
:1011700040F00100206400E0012500BF002084F859
:101180003C0000BF2846D2E70100000F10B586B032
:1011900004462149206888423BD100BF00200090CE
:1011A0001E48006840F480701C49086008460068CA
:1011B00000F48070009000BF00BF30200190032039
:1011C00002900020039001A9154801F06FF815481E
:1011D0001549086000204860002113488160C16003
:1011E0004FF48061016149004161890081614911C9
:1011F000C161490201620021416200F091FF18B112
:101200008F210AA003F0BCFF00BF0748A0638463DE
:1012100000BF06B010BD000000200140443802406D
:101220000000024010640240B00900202E2E2F530F
:1012300072632F6164632E6300000000F8B50446FA
:101240000D4616460020009000BF94F83C0001288F
:1012500001D10220F8BD012084F83C0000BF2068C5
:10126000806800F00100A0B92068806840F00100AB
:10127000216888603C4800683C49B0FBF1F000EB15
:101280004000009002E00098401E00900098002866
:10129000F9D12068806800F00100002862D0206C3D
:1012A00040F20161884340F4807020642068406807
:1012B00000F4806028B1206C20F4005040F480508D
:1012C0002064206C00F4805020B1606C20F0060097
:1012D000606401E00020606400BF002084F83C00EE
:1012E00000BF234F2348A16BC8632348A16B086448
:1012F0002248A16BC8646FF0220021680860206852
:10130000406840F08060216848602068806840F450
:10131000807021688860226802F14C0133462A46B9
:10132000A06B00F073FF786800F01F0058B92068C8
:10133000806800F0405028B92068806840F0804004
:10134000216888600EE00E49206888420AD1206832
:10135000806800F0405028B92068806840F08040E4
:1013600021688860002075E78801002040420F0056
:1013700000230140F30800087B0900086109000808
:1013800000200140024692F82000012803D092F884
:101390002000022806D1106840690843136858618C
:1013A00000207047506A40F4802050620120F8E726
:1013B00070B504460D46A86800B900E000BF94F877
:1013C0002000012803D094F8200002287FD1206853
:1013D000806800F0806050B92068806800F000608C
:1013E00028B92068806800F08050002869D0206803
:1013F0008068C0F30161012088401860A86850B976
:101400002E88E86840EA4656206800F5C07000EB78
:10141000011006600BE0D5E9016040EAC600EE6805
:101420003043266806F5C07606EB011630602E695B
:10143000206800F5C07000EB01104660287D01288F
:101440000DD1206800F5C07000EB0110406840F439
:101450008076206800F5C07000EB01104660D079FE
:101460000006967940EA0640567940EA0626107949
:101470000643206800F5C07000EB0110C660D0780C
:101480000006967840EA0640567840EA062016782C
:101490003043266806F5C07606EB0116B06020687A
:1014A00000F5C07000EB0110006840F001062068F4
:1014B00000F5C07000EB01100660002070BD06E072
:1014C000FFE7606A40F4001060620120F6E7606A9E
:1014D00040F4802060620120F0E7000070B504460F
:1014E0000A460023216894F82000012803D094F8CC
:1014F0002000022873D1484D2068A84200D101E0A5
:10150000464900BFD1F8000240F00100C1F80002D6
:10151000424881420CD1D1F8000220F47C50C1F83D
:101520000002D1F80002556A40EA0520C1F8000225
:10153000157D012000FA05F3D1F81C029843C1F88B
:101540001C02D069C8B9D1F80C029843C1F80C024A
:10155000908880B2958940EA054501F5107056697A
:1015600040F83650108880B2158940EA054501F5EB
:101570001070566900EBC6004560D069012819D18A
:10158000D1F80C021843C1F80C02908880B215887B
:1015900040EA054501F51070566940F836509089CB
:1015A00080B2158940EA054501F51070566900EBD7
:1015B000C6004560906928B9D1F804029843C1F883
:1015C000040204E0D1F804021843C1F804021069CF
:1015D00030B9D1F814029843C1F8140205E014E0C0
:1015E000D1F814021843C1F81402106A012804D17A
:1015F000D1F81C021843C1F81C02D1F8000220F0F7
:101600000100C1F80002002070BD606A40F4802033
:1016100060620120F8E70000006C004000640040B8
:10162000704730B5044694F82000012803D094F8A0
:10163000200002287DD151B92068C06800F0030065
:1016400090B9606A40F400106062012030BD012949
:101650000AD12068006900F0030028B9606A40F4EC
:10166000001060620120F1E7206800F5D87000EBFF
:101670000110006800F004009060906840B9206894
:1016800000F5D87000EB01100068400D106007E015
:10169000206800F5D87000EB01100068C0085060A9
:1016A000206800F5D87000EB0110006800F002001F
:1016B0004008D060206800F5D87000EB0110406849
:1016C00000F00F001061206800F5D87000EB0110E9
:1016D000406800F47F40000A9061206800F5D870EF
:1016E00000EB01104068000C5061206800F5D870D4
:1016F00000EB011080681870206800F5D87000EBCE
:101700000110806800F47F40000A5870206800F5DE
:10171000D87000EB0110806800F47F00000C987016
:10172000206800F5D87000EB01108068000ED870BA
:1017300000E034E0206800F5D87000EB0110C068CC
:101740001871206800F5D87000EB0110C06800F433
:101750007F40000A5871206800F5D87000EB011036
:10176000C06800F47F00000C9871206800F5D87004
:1017700000EB0110C068000ED87131B92068C06854
:1017800040F020002568E86007E0012905D12068C5
:10179000006940F0200025682861002056E7606A53
:1017A00040F480206062012050E72DE9F05F04469C
:1017B0000025206846692068D0F804902068876872
:1017C0002068D0F80CA02068D0F810B02068D0F8BD
:1017D000188006F00100002855D007F00100C0B1C4
:1017E00001202168886007F0020018B1204600F04F
:1017F000DBFA0EE007F0040010B145F4006508E0E4
:1018000007F0080010B145F4805502E0204600F0D2
:10181000CAFA07F48070C8B14FF4807021688860FC
:1018200007F4007018B1204600F0C0FA0EE007F48B
:10183000806010B145F4005508E007F4006010B175
:1018400045F4804502E0204600F0AFFA07F480300E
:10185000C8B14FF480302168886007F4003018B1B7
:10186000204600F0A5FA0EE007F4802010B145F400
:10187000004508E007F4002010B145F4803502E08F
:10188000204600F094FA06F0080038B10AF0100083
:1018900020B145F4007510202168C86006F00400EE
:1018A00040B10AF0080028B108202168C86020462D
:1018B00000F0F2F906F0020038B12068C06800F0CC
:1018C000030010B1204600F0E9F906F0400038B1FD
:1018D0000BF0100020B145F48065102021680861EC
:1018E00006F0200040B10BF0080028B10820216864
:1018F0000861204600F024FA06F0100038B1206894
:10190000006900F0030010B1204600F01AFA06F456
:10191000003040B109F0100028B110202168486063
:10192000204600F00FFA06F4803040B109F00800BC
:1019300028B1082021684860204600F03AFA06F4F1
:10194000004088B309F0040078B306F4807020B139
:1019500008F0010008B145F0010506F4007020B15F
:1019600008F0020008B145F0020506F4806020B1DD
:1019700008F0040008B145F0040506F40060A0B1C9
:1019800008F0700088B108F07000402817D006DC1D
:1019900010280BD020280CD0302819D10CE050286A
:1019A00010D0602814D110E01DE019E045F00805C2
:1019B0000FE045F010050CE045F0200509E045F08A
:1019C000400506E045F0800503E045F4807500E041
:1019D00000BF00BF2068806920F070002168886126
:1019E0000420216848602DB1606A28436062204667
:1019F000FFF716FEBDE8F09F70B5044600250CB950
:101A0000012070BD94F8200010B9204600F0B0F815
:101A10002068006820F002002168086000F050FD96
:101A200005460DE000F04CFD401B0A2808D9606A0D
:101A300040F400306062052084F820000120E0E7D7
:101A40002068406800F002000028EBD120680068A0
:101A500040F001002168086000F032FD05460DE00D
:101A600000F02EFD401B0A2808D9606A40F40030BF
:101A70006062052084F820000120C2E720684068E9
:101A800000F001000028EBD0207E012806D120685C
:101A9000006840F080002168086005E02068006868
:101AA00020F0800021680860607E012806D120684F
:101AB000006840F040002168086005E02068006888
:101AC00020F0400021680860A07E012806D120682F
:101AD000006840F020002168086005E02068006888
:101AE00020F0200021680860E07E012806D12068EF
:101AF000006820F010002168086005E02068006898
:101B000040F0100021680860207F012806D120687D
:101B1000006840F008002168086005E0206800685F
:101B200020F0080021680860607F012806D1206845
:101B3000006840F004002168086005E02068006843
:101B400020F0040021680860D4E9020108432169FB
:101B50000843616908436168491E08432168C861F8
:101B600000206062012084F82000002049E7000086
:101B700010B586B0044642492068884227D100BF8C
:101B8000002000903F48006840F000703D49086028
:101B90000846006800F00070009000BF00BF4FF4DE
:101BA000C050019002200290002003900320049076
:101BB0000920059001A9344800F078FB00220D218E
:101BC000142000F03EFD142000F02EFD56E02F49B9
:101BD0002068884227D100BF002000902948006873
:101BE00040F08060274908600846006800F0806087
:101BF000009000BF00BF4FF44050019002200290BF
:101C000000200390032004900920059001A920489A
:101C100000F04CFB00220E21402000F012FD40207D
:101C200000F002FD2AE01B492068884226D100BF4F
:101C3000002000901348006840F0006011490860DF
:101C40000846006800F00060009000BF00BF4FF43D
:101C50000140019002200290002003900320049094
:101C60000B20059001A9084800F020FB0022052167
:101C70004B2000F0E6FC4B2000F0D6FC06B010BD77
:101C8000006400404038024000000240006800400C
:101C900000040240006C00407047000010B504468C
:101CA0001A4920680968884209D1194B194A00214C
:101CB0001648FFF7B6FC1848006803F051FB1749B7
:101CC0002068096888421FD1154B164A0021134825
:101CD000FFF7A7FC4FF48061134800F0E7FB1148C1
:101CE00040681249884204D11148006803F038FB6B
:101CF0000AE00C4840680F4908400F49884203D168
:101D00000E48006803F02CFB10BD0000300D0020D1
:101D1000DE000020CC08002094000020580D002098
:101D2000E6000020E808002000100240D8E0FE187D
:101D3000A000002000FFFF00006CFE00A4000020B7
:101D400070477047704770B50446002594F820002E
:101D5000012822D1022084F820002068006820F0A9
:101D600001002168086000F0ABFB05460DE000F0C3
:101D7000A7FB401B0A2808D9606A40F40030606263
:101D8000052084F82000012070BD2068406800F024
:101D900001000028EBD16062F6E7606A40F40020A1
:101DA00060620120F0E770477047704770477047E6
:101DB0007047704710B504460CB9012010BD60791A
:101DC00020B900202071204600F006F80220607142
:101DD000012060710020F1E708B50A4A01689142CC
:101DE0000FD100BF002100910749096841F48051DB
:101DF000054A11601146096801F48051009100BF45
:101E000000BF08BD003002403038024070B50446C3
:101E1000A56D00F055FB064694F83500022808D061
:101E20008020606500BF002084F8340000BF0120DE
:101E300070BD2068006820F01600216808602068E6
:101E4000406920F0800021684861206C08B9A06CCE
:101E500028B12068006820F0080021680860206828
:101E6000006820F00100216808600FE000F028FB06
:101E7000801B05280AD92020606500BF002084F857
:101E8000340000BF032084F83500D1E720680068E3
:101E900000F001000028E9D194F85C103F20884050
:101EA000A86000BF002084F8340000BF012084F83F
:101EB00035000020BCE7014691F83500022803D028
:101EC0008020486501207047052081F835000868AA
:101ED000006820F001000A6810600020F3E70000AD
:101EE000F8B50446002000908C4800684FF4165165
:101EF000B0FBF1F7A56D2E6894F85C1008208840BF
:101F0000304098B12068006800F0040070B120688B
:101F1000006820F004002168086094F85C10082034
:101F20008840A860606D40F00100606594F85C1026
:101F300001208840304068B12068406900F080008E
:101F400040B194F85C1001208840A860606D40F0BA
:101F50000200606594F85C1004208840304068B14D
:101F60002068006800F0020040B194F85C10042082
:101F70008840A860606D40F00400606594F85C10D3
:101F800010208840304078B32068006800F00800D6
:101F900050B394F85C1010208840A8602068006856
:101FA00000F4802080B12068006800F4002028B987
:101FB000206CC8B12046216C884715E0A06C98B110
:101FC0002046A16C88470FE02068006800F480700C
:101FD00028B92068006820F0080021680860206C9B
:101FE00010B12046216C884794F85C10202088406E
:101FF0003040002865D02068006800F010000028FC
:102000005FD094F85C1020208840A86094F83500D8
:10201000052828D12068006820F016002168086093
:102020002068406920F0800021684861206C08B970
:10203000A06C28B12068006820F0080021680860C2
:1020400094F85C103F208840A86000BF002084F80E
:10205000340000BF012084F83500206D10B1204607
:10206000216D8847F8BD2068006800F4802080B1A9
:102070002068006800F4002028B9606C10B1204688
:10208000616C88471DE0E06BD8B12046E16B884762
:1020900017E02068006800F4807068B92068006864
:1020A00020F010002168086000BF002084F8340090
:1020B00000BF012084F83500E06B10B12046E16BD1
:1020C0008847606D38B3606D00F00100F0B1052005
:1020D00084F835002068006820F00100216808605D
:1020E00000BF0098401C0090B84200D905E020686D
:1020F000006800F001000028F3D100BF00BF0020FD
:1021000084F8340000BF012084F83500E06C10B181
:102110002046E16C884700BFA4E70000880100204A
:102120002DE9F0410446002500F0CAF9074614B92C
:102130000120BDE8F081606A00B100BF00BF00204F
:1021400084F8340000BF022084F83500206800685D
:1021500020F00100216808600AE000F0B1F9C01B1E
:10216000052805D920206065032084F83500E0E7C4
:102170002068006800F001000028EED120680568A2
:1021800021480540D4E901010843E1680843216979
:10219000084361690843A1690843E1690843216A6A
:1021A00008430543606A042803D1D4E90B010843BE
:1021B0000543206805602068456925F00705606AC9
:1021C0000543606A04280DD1A06A0543E06A48B15E
:1021D0002046FEF749FE28B140206065012084F8C2
:1021E0003500A6E7206845612046FEF723FE064637
:1021F00094F85C103F208840B060002060650120AA
:1022000084F83500002094E73F8010E02DE9F04786
:1022100004460D4616461F464FF00008D4F8589065
:1022200000BF94F83400012802D10220BDE8F087F5
:10223000012084F8340000BF94F8350001282BD128
:10224000022084F83500002060653B46324629466E
:102250002046FEF75EFE94F85C103F208840C9F8E7
:1022600008002068006840F01600216808602068B7
:10227000406940F0800021684861206C28B12068E6
:10228000006840F00800216808602068006840F09D
:1022900001002168086006E000BF002084F83400D7
:1022A00000BF4FF002084046C0E70000F8B5024604
:1022B0000B460025002400200021D7E0012606FA65
:1022C00001F51E6806EA0504AC4273D15E68022E71
:1022D00002D05E68122E13D1CF0802F1200656F804
:1022E00027004E07F70E0F26BE40B0434F07FF0EE4
:1022F0001E69BE403043CF0802F1200646F8270091
:1023000010684F000326BE40B0431E7906F0030656
:102310004F00BE40304310605E68012E08D05E68FA
:10232000022E05D05E68112E02D05E68122E13D1E7
:1023300090684F000326BE40B0434F00DE68BE40A9
:1023400030439060506801268E40B0431E79C6F33A
:1023500000168E4030435060D0684F000326BE40C8
:10236000B0434F009E68BE403043D0605E6806F0C8
:102370008056B6F1805F78D100BF002600963D4EB2
:10238000366846F480463B4F3E603E46366806F46B
:102390008046009600BF00BF374E8F0856F82700D2
:1023A0008E07370F0F26BE40B043344EB24202D1E3
:1023B00000261FE059E0324EB24201D1012619E059
:1023C000304EB24201D1022614E02F4EB24201D16A
:1023D00003260FE02D4EB24201D104260AE02C4E16
:1023E000B24201D1052605E02A4EB24201D10626AD
:1023F00000E007268F073F0FBE4030431E4E8F0878
:1024000046F82700244E3068A0435E6806F4803604
:10241000B6F5803F00D120431F4E3060361D306836
:10242000A0435E6806F40036B6F5003F00D12043B5
:10243000194E361D3060361D3068A0435E6806F4C4
:102440008016B6F5801F00D12043134E0836306049
:10245000361D3068A0435E6806F40016B6F5001F0E
:1024600000D120430C4E0C363060491C1029FFF47B
:1024700025AFF8BD44380240083801400000024052
:102480000004024000080240000C0240001002401C
:102490000014024000180240003C0140024613694B
:1024A0000B400BB1012000E00020704742694A4018
:1024B000426170470AB1816101E00B04836170479A
:1024C00001480068704700007C0100200348006854
:1024D0000349097808440149086070477C010020DD
:1024E0008401002010B50D48006840F400700B49CD
:1024F00008600846006840F480600860084600688C
:1025000040F480700860032000F0DAF8002000F04A
:1025100007F800F04BF8002010BD0000003C02401E
:1025200070B588B0044600250026002221461E20F2
:1025300000F087F81E2000F077F800BF002001901F
:102540001648006840F00400144908600846006816
:1025500000F00400019000BF00BF02A903A800F032
:1025600083F900F0A9F945000D48B5FBF0F0461ECF
:102570000C480D49086040F2E7310B48C1604660E5
:1025800000210161816000F094FC20B9064800F050
:10259000D9FC08B070BD0120FBE7000040380240C4
:1025A00040420F00000800408C01002008B500BF29
:1025B000002000901B48006840F4804019490860E2
:1025C0000846006800F48040009000BF00BF032070
:1025D00000F076F8002211466FF00B0000F031F8A1
:1025E000002211466FF00A0000F02BF8002211467D
:1025F0006FF0090000F025F800221146501F00F08E
:1026000020F800221146101F00F01BF800220F21B5
:10261000901E00F016F800220F21501E00F011F855
:1026200008BD00004438024000BF00F01F02012135
:1026300091404209920002F1E022C2F8001100BF6D
:1026400070472DE9F05F80460D461646002701F0E1
:1026500081FD074639462A46334601F00700C0F19E
:10266000070ABAF1040F02D94FF0040A01E0C0F1E1
:10267000070AD14600F1040ABAF1070F02D24FF05F
:10268000000A01E0A0F1030AD4464FF0010A0AFA59
:1026900009FAAAF1010A0AEA020A0AFA0CFA4FF048
:1026A000010B0BFA0CFBABF1010B0BEA030B4AEA33
:1026B0000B042146404601F055FDBDE8F09F0000A7
:1026C00000BF00F00702064B19684FF6FF031940E0
:1026D000044B0B4343EA0221014B196000BF7047D2
:1026E0000CED00E00000FA0570B504460D460CB98B
:1026F000012070BD5848006800F00F00A84209D2C0
:1027000055490D700846006800F00F00A84201D03E
:102710000120EEE7207800F0020002281DD1207889
:1027200000F00400042805D14C48006840F4E05053
:102730004A490860207800F00800082805D1474879
:10274000006840F46040454908604448006820F053
:10275000F000A168084341490860207800F00100BA
:10276000A8B36068012807D13C4808380068C0F366
:102770004040B8B90120BCE76068022802D0606818
:10278000032807D1354808380068C0F3406048B9CD
:102790000120AEE7314808380068C0F3400008B9AE
:1027A0000120A6E72D48006820F003006168084377
:1027B0002A490860FFF784FE064609E0FFF780FE1D
:1027C000801B41F28831884202D9032091E707E05B
:1027D0002248006800F00C006168B0EB810FEDD179
:1027E0001D48006800F00F00A84209D91A490D7071
:1027F0000846006800F00F00A84201D0012078E7E9
:10280000207800F00400042807D11448006820F460
:10281000E050E168084311490860207800F00800A2
:10282000082808D10D48006820F46040216940EA7A
:10283000C1000A49086000F05FF808490968C1F35F
:102840000311074A515CC840064908600020FFF7A1
:1028500067FE00204DE70000003C024008380240BF
:10286000EC6D0008880100200F2202600D4A1268FA
:1028700002F0030242600B4A126802F0F00282602A
:10288000084A126802F4E052C260064A126802F472
:102890006042D2080261044A126802F00F020A6024
:1028A0007047000008380240003C024001480068C0
:1028B000704700008801002000B5FFF7F7FF0449CA
:1028C0000968C1F38221034A515CC84000BD000081
:1028D00008380240FC6D000800B5FFF7E7FF044927
:1028E0000968C1F34231034A515CC84000BD000091
:1028F00008380240FC6D00082DE9F047002400254F
:102900000026A1462548006800F00C0020B10428EC
:1029100005D008283AD105E0DFF8849039E0DFF8E7
:10292000849036E01D48001F006800F03F041B48FB
:10293000001F006800F4800078B11A481749091F89
:102940000968C1F38811A0FB0170014622460023EB
:102950003846FDF7BBFC05460EE011480F49091F3C
:102960000968C1F38811A0FB0170014622460023CB
:102970003846FDF7ABFC05460848001F0068C0F369
:102980000140401C4600B5FBF6F902E0DFF810906C
:1029900000BF00BF4846BDE8F0870000083802408D
:1029A0000024F40000127A00F8B5044600252078CF
:1029B00000F00100002874D0F748006800F00C0017
:1029C00004280DD0F448006800F00C00082813D14A
:1029D000F148001F006800F48000B0F5800F0BD1B3
:1029E000ED4808380068C0F34040002859D06068BE
:1029F000002856D10120F8BD00BF6068B0F5803FC7
:102A000008D1E5480838006840F48030E2490839C8
:102A100008601EE06068B0F5A02F0DD1DE480838D0
:102A2000006840F48020DC490839086008460068E6
:102A300040F4803008600CE0D7480838006820F483
:102A40008030D549083908600846006820F48020A5
:102A5000086000BF606890B1FFF732FD054606E0F0
:102A6000FFF72EFD401B642801D90320C3E7CA48A5
:102A700008380068C0F340400028F1D011E0FFF7AB
:102A80001FFD054606E0FFF71BFD401B642801D92A
:102A90000320B0E7C04808380068C0F34040002871
:102AA000F1D1207800F0020002285FD1BA48006816
:102AB00000F00C0058B1B848006800F00C0008287D
:102AC0001CD1B548001F006800F48000B0B9B248BE
:102AD00008380068C0F3400020B1E068012801D048
:102AE000012088E7AC480838006820F0F800216928
:102AF00040EAC100A8490839086037E0E06800B33F
:102B00000120A6490860FFF7DBFC054606E0FFF759
:102B1000D7FC401B022801D903206CE79E480838E7
:102B20000068C0F340000028F1D09B4808380068D6
:102B300020F0F800216940EAC1009749083908608F
:102B400014E0002095490860FFF7BAFC054606E04E
:102B5000FFF7B6FC401B022801D903204BE78E4843
:102B600008380068C0F340000028F1D1207800F058
:102B7000080008282CD16069A8B1012088490860A4
:102B8000FFF79EFC054606E0FFF79AFC401B022873
:102B900001D903202FE780486C300068C0F3400063
:102BA0000028F1D014E000207D490860FFF788FC80
:102BB000054606E0FFF784FC401B022801D90320EC
:102BC00019E775486C300068C0F340000028F1D167
:102BD000207800F00400042870D100266E483830B8
:102BE000006800F0805090B900BF002000906A4853
:102BF0003830006840F08050674938310860084636
:102C0000006800F08050009000BF00BF01266548BA
:102C1000006800F48070B0B96248006840F48070C9
:102C200060490860FFF74CFC054606E0FFF748FCEA
:102C3000401B022801D90320DDE65A48006800F451
:102C400080700028F2D000BFA068012808D1524847
:102C50006830006840F001004F49683108601DE0AD
:102C6000A06805280DD14C486830006840F0040089
:102C70004949683108600846006840F00100086072
:102C80000CE045486830006820F001004249683196
:102C900008600846006820F00400086000BFA068D3
:102CA000A8B1FFF70DFC054609E0FFF709FC401B42
:102CB00041F28831884202D903209CE626E036485A
:102CC00068300068C0F340000028EED013E0FFF742
:102CD000F7FB054608E0FFF7F3FB401B41F28831A4
:102CE000884201D9032086E62B4868300068C0F38B
:102CF00040000028EFD1012E07D127483830006866
:102D000020F0805024493831086000BFA069D8B352
:102D10002148006800F00C00082861D0A069022852
:102D200049D100201D490866FFF7CAFB054606E0A9
:102D3000FFF7C6FB401B022801D903205BE61648BB
:102D400008380068C0F340600028F1D1D4E90701D9
:102D50000843616A40EA81110122A06AC2EB500077
:102D600041EA00412C20005D41EA00613020005D15
:102D700041EA00700849091F0860012007490866F8
:102D8000FFF79EFB05460FE02CE0FFF799FB401B89
:102D9000022809D903202EE60838024000004742E5
:102DA000800E4742007000400F480068C0F340604A
:102DB0000028EAD016E000200C490866FFF780FBE7
:102DC000054606E0FFF77CFB401B022801D90320E3
:102DD00011E605480068C0F340600028F2D101E028
:102DE000012008E6002006E60038024000004742C5
:102DF000042808D14FF0E021096941F004014FF0A7
:102E0000E022116107E04FF0E021096921F004019F
:102E10004FF0E0221161704770B504462546681EE8
:102E2000B0F1807F01D301200FE0681E4FF0E02158
:102E300048610F214FF0FF3001F094F900204FF06E
:102E4000E021886107200861002070BD704770474D
:102E5000024600BF92F83800012801D102207047D5
:102E6000012082F8380000BF022082F83900106883
:102E7000406820F0700013685860106840680B6864
:102E80001843136858601068806820F08000136849
:102E90009860106880684B68184313689860012038
:102EA00082F8390000BF002082F8380000BF00BF60
:102EB000D5E710B504460CB9012010BD94F83900CF
:102EC00028B9002084F83800204600F00DF80220D0
:102ED00084F83900211D206801F0D2FC012084F81B
:102EE00039000020E9E7000008B50168B1F1804F22
:102EF0000FD100BF002100911049096841F0010184
:102F00000E4A11601146096801F00101009100BFED
:102F100013E00B4A016891420FD100BF00210091DC
:102F20000649096841F00201044A11601146096826
:102F300001F00201009100BF00BF08BD403802400F
:102F40000004004001460868C06840F001000A68BB
:102F5000D0600868006840F001000A681060002036
:102F600070472DE9F04104460D46002600BF94F855
:102F70003800012802D10220BDE8F081012084F848
:102F8000380000BF022084F839002068866826F0E7
:102F9000770626F47F4620688660286850283BD054
:102FA0000CDC202860D004DC002853D0102865D128
:102FB00055E030285DD0402860D141E0602835D010
:102FC00070280DD0B0F5805F03D0B0F5005F55D10B
:102FD00015E02068806820F00700216888604EE0D6
:102FE000D5E902136A68206801F0BCFC2068866895
:102FF00026F0770646F07706206886603FE0D5E940
:1030000002136A68206801F0ADFC2068806840F413
:1030100080402168886032E0EA686968206801F0D1
:10302000B7FC5021206801F0A9FC28E0EA68696833
:10303000206801F0C2FC6021206801F09FFC1EE0C6
:10304000EA686968206801F0A3FC4021206801F06B
:1030500095FC14E00021206801F090FC0FE01021A5
:10306000206801F08BFC0AE02021206801F086FC3A
:1030700005E03021206801F081FC00E000BF00BFC6
:10308000012084F8390000BF002084F8380000BF18
:1030900000BF71E7704710B5044620680069C0F3AF
:1030A0004000D8B12068C068C0F34000B0B16FF0F4
:1030B000020021680861012020762068806900F004
:1030C000030018B12046FFF7E5FF05E0204600F0B9
:1030D000ADF8204600F0ABF80020207620680069AB
:1030E000C0F38000D8B12068C068C0F38000B0B1E0
:1030F0006FF0040021680861022020762068806952
:1031000000F4407018B12046FFF7C4FF05E02046E8
:1031100000F08CF8204600F08AF800202076206825
:103120000069C0F3C000D8B12068C068C0F3C00017
:10313000B0B16FF008002168086104202076206893
:10314000C06900F0030018B12046FFF7A3FF05E0B7
:10315000204600F06BF8204600F069F80020207649
:1031600020680069C0F30010D8B12068C068C0F3BF
:103170000010B0B16FF010002168086108202076BF
:103180002068C06900F4407018B12046FFF782FF44
:1031900005E0204600F04AF8204600F048F80020FC
:1031A00020762068006900F0010058B12068C068EE
:1031B00000F0010030B16FF0010021680861204685
:1031C00000F036F820680069C0F3C01058B12068DC
:1031D000C068C0F3C01030B16FF080002168086192
:1031E0002046FFF733FE20680069C0F3801058B115
:1031F0002068C068C0F3801030B16FF040002168D3
:103200000861204600F020F820680069C0F34010F3
:1032100058B12068C068C0F3401030B16FF0200092
:10322000216808612046FFF712FE10BD7047704705
:1032300010B5044603492068884201D1FFF746F9DA
:1032400010BD000000080040704770B5044600251E
:1032500020684069C0F3C01594F8390021280ED1C8
:103260006DB12068406920F0800021684861206BC2
:1032700010B1206BFEF7CAFD204601F039FC206832
:103280004069C0F3801594F83A0022280ED16DB140
:103290002068406920F0400021684861606B10B1EF
:1032A000606BFEF7B3FD204601F002FC002070BD0C
:1032B000704700002DE9F047044620680568206843
:1032C000C668206847694FF00008C14605F00F083E
:1032D000B8F1000F0AD105F0200038B106F0200047
:1032E00020B1204601F00EFCBDE8F087B8F1000FD8
:1032F0006DD007F0010018B906F49070002866D070
:1033000005F0010030B106F4807018B1E06B40F0B8
:103310000100E06305F0040030B107F0010018B1CE
:10332000E06B40F00200E06305F0020030B107F00E
:10333000010018B1E06B40F00400E06305F0080004
:1033400030B107F0010018B1E06B40F00800E06315
:10335000E06B68B305F0200028B106F0200010B142
:10336000204601F0CFFB20684069C0F38019E06B74
:1033700000F0080010B9B9F1000F22D0204601F08A
:1033800097FB2068406900F04000B0B120684069B8
:1033900020F0400021684861606B50B11748616BB4
:1033A0000865606BFEF787FD10B1606B016D8847A3
:1033B0000CE02046FFF77CFF08E02046FFF778FF8F
:1033C00004E02046FFF774FF0020E0638CE705F07F
:1033D000800030B106F0800018B1204601F094FD65
:1033E00082E705F0400030B106F0400018B12046F9
:1033F00001F06EFB78E700BF76E70000F9490008AE
:1034000010B504460CB9012010BDA06900B100E060
:1034100000BF94F8390028B9002084F8380020460D
:1034200000F028F8242084F839002068C06820F4CF
:1034300000502168C860204601F0B2FB2068006996
:1034400020F49040216808612068406920F02A003B
:10345000216848612068C06840F400502168C86055
:103460000020E063202084F8390084F83A0000202E
:10347000CAE7000010B586B00446A6492068884215
:1034800052D100BF00200090A348006840F4801093
:10349000A14908600846006800F48010009000BF51
:1034A00000BF8814019002200290012003900320A5
:1034B00004900820059001A99848FEF7F7FE042023
:1034C0000190022002900120039003200490082024
:1034D000059001A99248FEF7E9FE924892490860DA
:1034E000C0054860002190488160C1604FF4806150
:1034F0000161002141618161C16101624162FEF7A8
:103500000FFE18B1BD2189A001F03AFE00BF864828
:103510006063846300BF002205213520FFF791F826
:103520003520FFF781F8F2E084492068884248D1CD
:1035300000BF002000907848001D006840F0100097
:103540007549091D08600846006800F010000090E9
:1035500000BF00BF4FF4C060019002200290012024
:103560000390032004900720059001A97448FEF7FA
:103570009DFE7448744908604FF000604860002167
:1035800071488160C1604FF4806101610021416137
:103590008161C16101624162FEF7C2FD18B1EA2199
:1035A00062A001F0EDFD00BF67486063846300BF67
:1035B000002205212520FFF744F82520FFF734F8E5
:1035C000A5E062492068884247D100BF00200090F2
:1035D0005148006840F400304F49086008460068D0
:1035E00000F40030009000BF00BF0C2001900220CA
:1035F000029001200390032004900720059001A968
:103600004F48FEF753FE47487830514908604FF065
:103610000060486000214E488160C1604FF48061C5
:103620000161002141618161C16101624162FEF776
:1036300077FD20B140F217113CA001F0A1FD00BFC1
:1036400043486063846300BF002205212620FEF703
:10365000F8FF2620FEF7E8FF59E03E49206888423F
:1036600055D100BF002000902B48006840F4802016
:10367000294908600846006800F48020009000BFD7
:1036800000BF20200190022002900120039003201F
:1036900004900720059001A92048FEF707FE4FF48B
:1036A000806001900220029001200390032004908A
:1036B0000720059001A92848FEF7F8FD19481830A1
:1036C000264908604FF0006048600021234881606F
:1036D000C1604FF480610161002141618161C1617C
:1036E00001624162FEF71CFD20B140F24B110FA0B8
:1036F00001F046FD00BF19486063846300BF0022EB
:1037000005212720FEF79DFF2720FEF78DFF06B03D
:1037100010BD000000500040403802400008024048
:10372000000C024010600240880B00202E2E2F5308
:1037300072632F75736172742E6300000010014074
:103740000000024040640240E80B002000440040BA
:10375000480C00200048004000040240A80C002053
:1037600077B581B00446154694F83A00202850D128
:10377000029800B115B9012004B070BD00BF94F8E3
:103780003800012801D10220F6E7012084F8380032
:1037900000BF0298A062A5850020E063222084F883
:1037A0003A001D48616BC8631C48616B08641C4883
:1037B000616BC8640020616B086502AE32682368E3
:1037C000191D2B46606BFEF721FD00BF0020009005
:1037D00020680068009020684068009000BF00BF2B
:1037E00000BF002084F8380000BF2068C06840F4A3
:1037F00080702168C8602068406940F0010021683D
:1038000048612068406940F040002168486100201C
:10381000B2E70220B0E700005D4A0008A34A0008B2
:103820000D4A0008704770472DE9F84304460D46DD
:1038300016461F464FF0000994F8390020285CD145
:1038400005B116B90120BDE8F88300BF94F838002F
:10385000012801D10220F6E7012084F8380000BFDA
:103860000020E063212084F83900FEF729FE81461C
:10387000A684E6842BE0E08C401EE084A068B0F5CE
:10388000805F16D14B46002280212046009701F030
:103890006FFB08B10320D6E7A846B8F80000C0F3D4
:1038A000080021684860206908B9AD1C0FE06D1C54
:1038B0000DE04B46002280212046009701F058FB86
:1038C00008B10320BFE715F8010B21684860E08CC0
:1038D0000028D0D14B46002240212046009701F01D
:1038E00047FB08B10320AEE7202084F8390000BF71
:1038F000002084F8380000BFA5E70220A3E7704746
:1039000000BFFEE710B52DED088B04469FED100AB1
:10391000B0EE408AA079FCF7B5FE41EC1B0B9FEDA1
:103920000D0B53EC102BFCF7BBFD41EC1A0B9FED7C
:103930000B0B53EC102BFCF7ADFD41EC190BFCF716
:10394000C7FE08EE100AB0EE480ABDEC088B10BDA9
:10395000000000009A9999999999C93F00000000C8
:10396000000039401FB51E481E4908604FF48030E2
:10397000486000211B4881600121016181610021B3
:103980000162C162184981620021C1600221C161E6
:10399000012101634161FDF7C5FB18B1542113A05A
:1039A00001F0EEFB04200090012001900220029023
:1039B00069460C48FDF7ECFA18B15E210BA001F046
:1039C000DFFB052000900220019069460548FDF7C5
:1039D000DFFA18B1672105A001F0D2FB1FBD00007E
:1039E00000200140680900200100000F2E2E2F53F7
:1039F00072632F6164632E630000000010B50F48EE
:103A00000F4908600A20486000210D488160C160AC
:103A10004FF4802101614FF4401141610021017692
:103A200041768176C17601774177FDF7E5FF18B1E0
:103A3000512104A001F0A4FB10BD0000006400406F
:103A4000080D00202E2E2F5372632F63616E2E639C
:103A50000000000010B50F480F4908600A204860B8
:103A600000210D488160C1604FF4802101614FF455
:103A7000401141610021017641768176C17601775E
:103A80004177FDF7B9FF18B1672104A001F078FB79
:103A900010BD000000680040300D00202E2E2F5376
:103AA00072632F63616E2E630000000010B5104832
:103AB000104908601420486000210E488160C160F0
:103AC0004FF4802101614FF44011416100210176E2
:103AD0004176012181760021C17601774177FDF79A
:103AE0008BFF18B17D2104A001F04AFB10BD00003E
:103AF000006C0040580D00202E2E2F5372632F6350
:103B0000616E2E630000000010B50648064908608B
:103B10000846FEF74FF918B1422104A001F030FB2E
:103B200010BD000000300240140100202E2E2F5343
:103B300072632F6372632E630000000008B500BF3C
:103B4000002000902048006840F400101E490860E2
:103B50000846006800F40010009000BF00BF00BFDE
:103B6000002000900846006840F480000860084685
:103B7000006800F48000009000BF00BF0022052113
:103B80000B20FEF75EFD0B20FEF74EFD0022052107
:103B90000C20FEF756FD0C20FEF746FD0022052105
:103BA0001020FEF74EFD1020FEF73EFD00220521FD
:103BB0003820FEF746FD002205213A20FEF741FDA0
:103BC0003A20FEF731FD08BD3038024000B5ABB0F9
:103BD00000202A9001212AA801F0ACFB5C49086072
:103BE00000202990012129A801F0A4FB594908606F
:103BF00000202890012128A801F09CFB564908606C
:103C000000202790012127A801F094FB5349086068
:103C100000202690012126A801F08CFB5049086065
:103C200000202590012125A801F084FB4D49086062
:103C300000202490012124A801F07CFB4A4908605F
:103C40004FF0FF314248006801F0B2FB4FF0FF3106
:103C50004048006801F0ACFB4FF0FF313E4800687F
:103C600001F0A6FB4FF0FF313C48006801F0A0FBDB
:103C70004FF0FF313A48006801F09AFB4FF0FF31F6
:103C80003848006801F094FB142238491FA8FCF75B
:103C90004EFB00211FA801F0C9FB35490860142222
:103CA000324914311AA8FCF742FB00211AA801F08E
:103CB000BDFB3049086014222C49283115A8FCF7B7
:103CC00036FB002115A801F0B1FB2B490860142236
:103CD00026493C3110A8FCF72AFB002110A801F06E
:103CE000A5FB264908601422204950310BA8FCF797
:103CF0001EFB00210BA801F099FB2149086014224A
:103D00001A49643106A8FCF712FB002106A801F04D
:103D10008DFB1C49086014221449783101A8FCF776
:103D200006FB002101A801F081FB17490860174834
:103D3000FDF750F81648FCF7F9FE164801F0AAF90D
:103D4000022215491548FDF779FA2BB000BD000095
:103D500094000020980000209C000020A00000207B
:103D6000A4000020A8000020AC000020086D00087E
:103D70007000002074000020780000207C000020EB
:103D8000800000208400002088000020080D002012
:103D9000300D0020580D0020F000002068090020A0
:103DA00000B587B000BF002001905E48006840F079
:103DB00010005C4908600846006800F0100001909F
:103DC00000BF00BF00BF002001900846006840F01F
:103DD000800008600846006800F08000019000BF85
:103DE00000BF00BF002001900846006840F00100BD
:103DF00008600846006800F00100019000BF00BFA5
:103E000000BF002001900846006840F004000860F0
:103E10000846006800F00400019000BF00BF00BF2A
:103E2000002001900846006840F002000860084643
:103E3000006800F00200019000BF00BF00BF00203A
:103E400001900846006840F00800086008460068D5
:103E500000F00800019000BF00BF002240F2847112
:103E60003148FEF727FB002240213048FEF722FBB5
:103E7000002206212E48FEF71DFB012211462C4888
:103E8000FEF718FB01224FF440712A48FEF712FB9F
:103E9000012280212548FEF70DFB40F2847002903C
:103EA0000120039000200490059002A91E48FEF70F
:103EB000FDF940200290012003900020049005901D
:103EC00002A91A48FEF7F2F980200290012003901F
:103ED00000200490059002A91448FEF7E7F94FF47A
:103EE000407002900120039000200490059002A9E8
:103EF0001048FEF7DBF91020029000200390049098
:103F000002A90C48FEF7D2F9072002900120039085
:103F100000200490059002A90548FEF7C7F907B0F4
:103F200000BD000030380240001002400000024096
:103F3000000402400008024000B587B04FF0804006
:103F40001449086000204860002112488160C16067
:103F50000161FEF7AEFF18B149210FA001F010F981
:103F60004FF48050039003A90A48FEF7FAFF18B1F6
:103F70004F2109A001F004F900200190029001A94D
:103F80000448FEF765FF18B1562103A001F0F8F8C8
:103F900007B000BD100A00202E2E2F5372632F741D
:103FA000696D2E630000000000B587B01548164902
:103FB000086000204860002113488160C1600161F1
:103FC000FEF777FF18B1672110A001F0D9F84FF480
:103FD0008050039003A90C48FEF7C3FF18B16D2170
:103FE0000AA001F0CDF800200190029001A9064836
:103FF000FEF72EFF18B1742104A001F0C1F807B03C
:1040000000BD0000000400404C0A00202E2E2F535B
:1040100072632F74696D2E630000000010B50C48A8
:104020000C4908604FF496404860002109488160BF
:10403000C16001610C21416100218161C161FFF713
:10404000DFF918B1532104A001F09AF810BD000067
:1040500000500040880A00202E2E2F5372632F75C7
:10406000736172742E63000010B50C480C4908602F
:104070004FF4E1304860002109488160C16001616E
:104080000C21416100218161C161FFF7B9F918B1CB
:10409000662104A001F074F810BD0000001001407A
:1040A000C80A00202E2E2F5372632F75736172740D
:1040B0002E63000010B50C480C4908604FF4E13045
:1040C0004860002109488160C16001610C214161A3
:1040D00000218161C161FFF793F918B1792104A032
:1040E00001F04EF810BD000000440040080B002015
:1040F0002E2E2F5372632F75736172742E6300001E
:1041000010B50C480C4908604FF4964048600021F7
:1041100009488160C16001610C2141610021816118
:10412000C161FFF76DF918B18C2104A001F028F8E6
:1041300010BD000000480040480B00202E2E2F53D9
:1041400072632F75736172742E63000000BFFEE707
:104150007047000002480068C0F30220704700006A
:104160000CED00E010B5002807DA0A07140E054A26
:1041700000F00F031B1FD45403E00A07130E024A7A
:10418000135410BD18ED00E000E400E000BF4FF054
:10419000FF310E48006801F00BF904210C48FEF7CE
:1041A00085F90C490C48FCF781FD0B484079012842
:1041B00003D009484079022803D10848006801F07B
:1041C000CFF80A2001F0A5F8E1E7000098000020F0
:1041D000000402401C090020040900209C0000206B
:1041E00000BF4FF0FF310848006801F0E1F80748D0
:1041F000C07907490870084601780648FCF7AEFC0C
:104200000A2001F086F8ECE7A4000020E600002078
:10421000EF000020300D00202DED068B00BF202286
:1042200031493248FFF79CFA31480078012819D10A
:1042300000202F4908702F4890ED001A2E48D0ED2D
:10424000000A2E4890ED000A2D492748FCF778FE19
:10425000642320222A492B48FFF7E6FA2A480068FF
:1042600001F07EF829490988C1F30B00FCF7F9F940
:1042700041EC1A0B9FED260B53EC102BFCF710F9B9
:1042800041EC190B9FED240B53EC102BFCF77AF942
:1042900041EC180BFCF71CFA00EE100A204880EDE8
:1042A000000A1A494988C1F30B00FCF7DAF941EC1E
:1042B0001A0B9FED170B53EC102BFCF7F1F841ECA8
:1042C000190B9FED150B53EC102BFCF75BF941EC30
:1042D000180BFCF7FDF900EE100A114880ED010AF9
:1042E0001E2001F016F89AE71C090020480B002058
:1042F000D600002008010020000100200401002059
:104300003C090020880A002098000020F0000020CE
:104310006666666666660A40000000000000B040FF
:104320000C01002000BF4FF0FF312048006801F071
:104330003FF81F48FFF7E6FA1E4880ED000A90EDAF
:10434000000AB5EEC00AF1EE10FA12D290ED000AA2
:10435000DFED190AB4EEE00AF1EE10FA02D29FED99
:10436000160A02E0134890ED000A124880ED000A98
:1043700012E0104890ED000ADFED100AB4EEE00AFA
:10438000F1EE10FA02DD9FED0D0A02E0094890ED12
:10439000000A084880ED000A064890ED000A084827
:1043A000FCF73CFC0A2000F0B4FFBCE7A0000020B2
:1043B000E6000020FC0000200AD7A3C30AD7A343CD
:1043C000300D00202DED068B00BF4FF0FF31584817
:1043D000006800F0EDFFFF24002556484488C5889A
:1043E0002046FCF74FF941EC1A0B9FED530B53ECB1
:1043F000102BFCF755F841EC190B9FED510B53ECCA
:10440000102BFCF747F841EC180B9FED4F0B53ECCA
:10441000102BFCF745F960D2002C5ED02846FCF743
:1044200031F941EC1A0B9FED4A0B53EC102BFCF7C2
:1044300037F841EC190B9FED480B53EC102BFCF7B0
:1044400029F841EC180BFCF743F945490860204670
:10445000FCF718F941EC1A0B9FED370B53EC102BBE
:10446000FCF71EF841EC190B9FED350B53EC102BAC
:10447000FCF710F841EC180BFCF72AF939490860F1
:10448000084690ED000AB1EE400A3548D0ED000A2A
:1044900080EE201A344880ED001A90ED000AF0EE0C
:1044A000080AB4EEE00AF1EE10FA17D22C4890EDAB
:1044B000000AB5EEC00AF1EE10FA0FD2084690EDF0
:1044C000000AB5EEC00AF1EE10FA07DD0320274915
:1044D00008702748006800F043FF24E0224890ED70
:1044E000000AF0EE0C0AB4EEE00AF1EE10FA17D270
:1044F0001B4890ED000AB5EEC00AF1EE10FA0FD29B
:10450000184890ED000AB5EEC00AF1EE10FA07DD8A
:104510000120164908701648006800F021FF02E0EB
:10452000002012490870022000F0F3FE4DE7000061
:10453000A8000020C80100209A9999999999C93F2B
:104540000000000000407F400000000000006940C3
:10455000000000000000D03F0000000000006040AC
:10456000000100200401002008010020EE000020CE
:104570009C000020002400BF4FF0FF31114800686C
:1045800000F016FF02211048FDF790FF0F48006869
:1045900040F20A61884201D101240FE00B48006813
:1045A00040F20B61884209D144B10024084909480E
:1045B000FCF798FA0848006800F0D2FE012000F0ED
:1045C000A8FED9E79400002000040240CC08002097
:1045D000C8010020DE000020A800002000BF4FF02E
:1045E000FF314B48006800F0E3FE4A48007801289C
:1045F0001DD0032837D14848C079B8B10122042121
:104600004648FDF757FF002201214548FDF752FFBC
:104610004FF47A7000F07DFE002204213F48FDF740
:1046200049FF012211463E48FDF744FF26E03A4883
:10463000C079B8B1012204213848FDF73BFF0022C0
:1046400001213748FDF736FF4FF4FA7000F061FEA4
:10465000002204213148FDF72DFF01221146304888
:10466000FDF728FF0AE0002204212C48FDF722FF75
:10467000012211462A48FDF71DFF00BF00BF264852
:104680004079012802D0022832D118E00122042109
:104690002248FDF70FFF002201212148FDF70AFF04
:1046A0004FF4FA6000F035FE002204211B48FDF7AC
:1046B00001FF012211461A48FDF7FCFE23E001220A
:1046C00004211648FDF7F6FE002201211448FDF7EB
:1046D000F1FE4FF4FA6000F01CFE002204210F48A6
:1046E000FDF7E8FE012211460D48FDF7E3FE0AE062
:1046F000002204210948FDF7DDFE01221146084889
:10470000FDF7D8FE00BF00BF0A2000F002FE66E7FA
:104710009C000020EE000020040900200010024050
:104720000004024010B500F079FE10BD10B594B041
:1047300000BF002001902F48006840F080502D49B4
:1047400008600846006800F08050019000BF00BF7C
:1047500000BF002001902848006840F440402649EE
:1047600008600846006800F44040019000BF00BFA8
:10477000012007900004089002200D9041050E9141
:1047800004210F9164211091022111911291139132
:1047900007A8FEF709F920B14FF4887117A000F0BF
:1047A000EFFC0F20029002200390002004904FF4B1
:1047B0008050059000200690032102A8FDF794FF89
:1047C00020B14FF48F710DA000F0DAFCFEF76EF807
:1047D0004FF47A71B0FBF1F42046FEF71DFB042084
:1047E000FEF706FB00220F21501EFDF72AFF14B032
:1047F00010BD000040380240007000402E2E2F53A4
:1048000072632F6D61696E2E6300000014480068AA
:1048100040F47000124908601248006840F001003E
:104820001049086000200F49083108600D480068F1
:104830000D4908400B4908600C48091D0860081F15
:10484000006820F48020091F0860002005490C3111
:1048500008604FF00060024980390860704700002E
:1048600088ED00E000380240FFFFF6FE1030002423
:1048700010B50248FEF70FFC10BD00008C010020AF
:10488000002202682C4B98420ED0B0F1804F0BD022
:104890002A4B984208D02A4B984205D0294B98427F
:1048A00002D0294B984201D1012300E000231BB123
:1048B00022F070024B681A431F4B984220D0B0F18F
:1048C000804F1DD01D4B98421AD01D4B984217D0D7
:1048D0001C4B984214D01C4B984211D01B4B984251
:1048E0000ED01B4B98420BD01A4B984208D01A4B53
:1048F000984205D0194B984202D0194B984201D1E9
:10490000012300E000231BB122F44072CB681A435C
:1049100002608B68C3620B688362074B984202D0C7
:10492000094B984201D1012300E000230BB10B6930
:10493000036301234361704700000140000400400D
:1049400000080040000C004000040140004001400D
:10495000004401400048014000180040001C004095
:104960000020004030B50C460021816821F47F41D1
:1049700042EA032525432943816030BD0A460021D0
:10498000816821F0700142F007031943816070478C
:1049900030B50B46144600210022026A056A25F054
:1049A00001050562816921F0F00141EA041122F05C
:1049B0000A021A438161026230BD30B50B461446CB
:1049C00000210022056A25F0100505628169026A4E
:1049D00021F4704141EA043122F0A00242EA0312BC
:1049E0008161026230BD000010B50248FEF762FC32
:1049F00010BD0000880A002070B50546AC6B002091
:104A0000E085E0842046FEF753FC70BD70B5064695
:104A10000025B46B20684069C0F3C01594F83900D4
:104A2000212805D125B10020E084204600F060F85F
:104A300020684069C0F3801594F83A00222805D117
:104A400025B10020E085204600F032F8E06B40F010
:104A50001000E0632046FEF72BFC70BD70B50546E4
:104A6000AC6B2868006800F48070B0B90020E08565
:104A70002068C06820F480702168C86020684069A0
:104A800020F00100216848612068406920F0400062
:104A900021684861202084F83A002046FEF7C2FED3
:104AA00070BD70B50446A56B2846FEF7BCFE70BD10
:104AB0000168C96821F490710268D1600168496990
:104AC00021F0010102685161202180F83A107047FD
:104AD00010B504462068C06820F040002168C86016
:104AE000202084F839002046FEF709FF002010BD81
:104AF0000168C96821F0C0010268D160202180F8F6
:104B00003910704770B5044694F83A00222844D111
:104B1000A068B0F5805F13D1A56A206940B920680C
:104B20004068C0F308002880A06A801CA06219E0D9
:104B300020684068C0B22880A06A401CA06211E0D2
:104B4000206938B920684068C1B2A26A501CA062CE
:104B5000117007E02068406800F07F01A26A501CD5
:104B6000A0621170E08D401E80B2E08598B9206887
:104B7000C06820F490702168C8602068406920F007
:104B8000010021684861202084F83A002046FEF7A1
:104B900049FE002070BD0020FCE70220FAE700007B
:104BA0002DE9F041044600252068056925F44055AB
:104BB000E0680543206805612068C56849F20C601B
:104BC00085432169A068084361690843E169084396
:104BD00005432068C5602068456925F44075A069D3
:104BE000054320684561E069B0F5004F7ED1C449B6
:104BF0002068884203D0C349206888425DD1FDF710
:104C00006BFE00EBC00101EB001061684900B0FBD6
:104C1000F1F06421B0FBF1F00601FDF75DFE00EB61
:104C2000C00101EB001061684900B0FBF1F7FDF72E
:104C300053FE00EBC00101EB001061684900B0FBBE
:104C4000F1F06421B0FBF1F000EBC00101EB0010CA
:104C5000A7EB8000322101EBC0006421B0FBF1F032
:104C600000F0F80006EB4006FDF736FE00EBC00151
:104C700001EB001061684900B0FBF1F7FDF72CFE75
:104C800000EBC00101EB001061684900B0FBF1F0DE
:104C90006421B0FBF1F000EBC00101EB0010A7EBC9
:104CA0008000322101EBC0006421B0FBF1F000F084
:104CB000070030442168886020E1FDF7FDFD00EB2E
:104CC000C00101EB001061684900B0FBF1F0642104
:104CD000B0FBF1F00601FDF7EFFD00EBC00101EBC9
:104CE000001061684900B0FBF1F700E045E0FDF716
:104CF000E3FD00EBC00101EB001061684900B0FB6F
:104D0000F1F06421B0FBF1F000EBC00101EB001009
:104D1000A7EB8000322101EBC0006421B0FBF1F071
:104D200000F0F80006EB4006FDF7C6FD00EBC00101
:104D300001EB001061684900B0FBF1F7FDF7BCFD25
:104D400000EBC00101EB001061684900B0FBF1F01D
:104D50006421B0FBF1F000EBC00101EB0010A7EB08
:104D60008000322101EBC0006421B0FBF1F000F0C3
:104D70000700304421688860C0E0614920688842AB
:104D800003D06049206888425CD1FDF7A5FD00EBA7
:104D9000C00101EB001061688900B0FBF1F6FDF77E
:104DA0009BFD00EBC00101EB001061688900B0FBC6
:104DB000F1F06421B0FBF1F000EBC00101EB001059
:104DC000A6EB8000322101EB00106421B0FBF1F072
:104DD00000F0F006FDF780FD00EBC00101EB0010D4
:104DE00061688900B0FBF1F06421B0FBF1F006EBE3
:104DF0000016FDF771FD00EBC00101EB00106168CA
:104E00008900B0FBF1F7FDF767FD00EBC00101EB96
:104E1000001061688900B0FBF1F06421B0FBF1F093
:104E200000EBC00101EB0010A7EB8000322101EB89
:104E300000106421B0FBF1F000F00F003044216855
:104E400088605BE0FDF738FD00EBC00101EB00106E
:104E500061688900B0FBF1F6FDF72EFD00EBC001A3
:104E600001EB001061688900B0FBF1F06421B0FB38
:104E7000F1F000EBC00101EB0010A6EB8000322145
:104E800001EB00106421B0FBF1F000F0F006FDF73B
:104E900013FD00EBC00101EB001061688900B0FB5D
:104EA000F1F06421B0FBF1F006EB0016FDF704FD14
:104EB00000EBC00101EB001061688900B0FBF1F765
:104EC000FDF7FAFC00EBC00101EB001061688900FE
:104ED000B0FBF1F06421B0FBF1F000EBC00101EB9D
:104EE0000010A7EB8000322101EB00106421B0FB21
:104EF000F1F000F00F00304421688860BDE8F081D7
:104F00000010014000140140014691F839002128A9
:104F10002CD18868B0F5805F0FD10A6A1088C0F381
:104F200008000B685860086918B9086A801C086294
:104F300009E0086A401C086205E00B6A581C086218
:104F400018780B685860C88C401E80B2C88458B965
:104F50000868C06820F080000B68D8600868C068E6
:104F600040F040000B68D860002070470220FCE74A
:104F70002DE9F04104460D4617469846069E21E06D
:104F8000701CF8B12EB1FDF79BFAA0EB0800B042FF
:104F900018D92068C06820F4D0702168C8602068E3
:104FA000406920F0010021684861202084F8390020
:104FB00084F83A0000BF002084F8380000BF0320C6
:104FC000BDE8F081206800682840A84201D1012096
:104FD00000E00020B842D3D00020F1E738B500242B
:104FE0000025114800680068C0F30014DCB100BF60
:104FF000002000900C480068006800900A48006893
:105000004068009000BF00BF074800680568064878
:10501000006845680448FEF718F9044800684568C8
:1050200001200349087038BDC80A0020E80B0020A1
:10503000D700002010B50248FEF73CF910BD000073
:10504000080B002038B500240F4800680068C0F342
:105050000014C4B100BF002000900B480068006835
:105060000090094800684068009000BF00BF0648F3
:10507000006805680448006845680348FEF7E5F8DD
:1050800001200249087038BD480B0020D6000020DE
:1050900000BFFEE710B594B0044628220D490AA8C7
:1050A000FBF745F90AA92046FCF718FA2822094916
:1050B00028316846FBF73BF969462046FCF70EFAB3
:1050C0002046FCF740FE02212046FCF75BF9002059
:1050D00014B010BD946D000870B504461021264828
:1050E000FDF7DCF9012844D1012280212348FDF796
:1050F000E1F9012240212148FDF7DCF9002280215D
:105100001E48FDF7D7F9052000F06EF8002522E0D3
:1051100004F00106002280211848FDF7CBF92EB1DA
:10512000012240211548FDF7C5F904E00022402185
:105130001248FDF7BFF94FF4967000F075F80122A0
:1051400080210E48FDF7B6F94FF4967000F06CF828
:105150006410681CC5B2082DDADB01224021074823
:10516000FDF7A8F9012280210448FDF7A3F90020EA
:1051700070BD0120FCE70000000802400000024072
:1051800000BFFEE702E008C8121F08C1002AFAD1DA
:1051900070477047002001E001C1121F002AFBD1B7
:1051A0007047000070B504460420FDF721FE0C484E
:1051B000047025464FF47A70454301200949088060
:1051C0004FF0E020006940F002004FF0E02108615C
:1051D00008464561006940F00100086170BD0000AB
:1051E000000000200200002070B5044601F092FB90
:1051F000012810D00B480088844206D30948008853
:10520000B4FBF0F5284600F001FE06480088B4FB28
:10521000F0F100FB11444FF47A7104FB01F000F04F
:1052200003F870BD0200002070B5034600224FF065
:10523000E02675690D4E367803FB06F44FF0E02644
:10524000B16910E04FF0E026B06988420BD0884287
:1052500002D20E1A324402E02E1A0E4432440146A3
:10526000A24200D300E0EDE700BF70BD00000020C7
:1052700000BFEFF3058008B1012070470020FCE774
:10528000FDF730F9FFF752FAFEF78AFDFEF756FCFC
:10529000FEF7B4FBFEF7DEFBFEF708FCFEF734FC7E
:1052A000FEF74AFEFEF780FEFEF7B8FEFEF7DCFED4
:1052B000FEF700FFFEF724FFFEF754FB6420FFF724
:1052C00071FF0F480068C06840F010000C49096881
:1052D000C860EF20FFF700FF6420FFF785FF002084
:1052E000FFF7FAFE40F6B830FFF77EFF1520FFF714
:1052F000F3FEFEF76BFC00F018F800BFFEE70000BD
:10530000480B002001460020842901D0CA1C10440B
:10531000704770B5044625460DB1294600E00121CD
:10532000084600F073FD002070BD10B500F02EFEA1
:10533000002010BD70B506460D46012D0ED103228A
:105340000021012000F06CFF04462CB100231A4616
:105350001946204601F0BEF8204670BD0020FCE74B
:1053600038B50446002500200090FFF781FF90B17A
:105370006946204601F082F9012801D0FF2038BD9E
:10538000009888B14FF0805008490860BFF34F8FF4
:10539000BFF36F8F08E000231A461946204601F03C
:1053A00099F8012800D0FF252846E8E704ED00E041
:1053B000F8B506460C46002000900EB98020F8BDD6
:1053C0000025601C08B96D1E03E014B1254605B91F
:1053D0000125FFF74DFF98B16A460021304601F0E4
:1053E000BDF9012801D0FF20E9E7009890B14FF006
:1053F000805009490860BFF34F8FBFF36F8F09E0FA
:1054000000232A461946304600F036FF012801D015
:10541000FF20D4E70020D2E704ED00E010B501F052
:1054200079FA012801D000F0E1FE10BDFEB5044676
:105430000D46B4F90800FFF765FF064602A8CDE95E
:105440000060238A9AB22B46D4E9001001F032FAA8
:10545000012801D00020FEBD0298FCE72DE9F041B3
:1054600005460E461C4807681C480068001D00F0F1
:10547000A5FB50B91948006890F82C10012088400D
:1054800017490968814316480160681C38B936B16C
:1054900012480168091D134800F0CEFB1AE07C1980
:1054A0000E4800684460BC4207D20C480168091DE0
:1054B0000D48006800F0A6FB0CE008480168091DD3
:1054C0000A48006800F09EFB09480068844201D247
:1054D00007480460BDE8F08154010020400100202D
:1054E000580100205C4A00204801002044010020AF
:1054F0007001002010B5044600F0AAFB23480068A4
:10550000401C224908602248006840B920480460D5
:105510000846006801280DD100F08EF90AE01D4808
:10552000006838B91A480068C06AE16A884201D840
:105530001748046018480068401C1749086094F830
:105540002C10012088401549096808431349086058
:10555000E16A01EB8101124A02EB8100211D00F09A
:105560006BFB00F09FFB0B48006868B108480068BF
:10557000C06AE16A884207D24FF08050094908604A
:10558000BFF34F8FBFF36F8F10BD0000500100209D
:10559000400100205C0100206C0100205801002027
:1055A0008049002004ED00E070B523E000F032FDFA
:1055B0001348006808B9012000E00020054601F00A
:1055C0000DFBBDB900F044FB0D48C068C468201D48
:1055D00000F0F4FA0B480068401E0A4908600A48C7
:1055E0000068401E0849086000F05CFB204600F09F
:1055F00060F800BF044800680028D7D170BD0000E3
:10560000484A0020500100204C01002070B504469B
:105610000D46206C70B1216CE0680844E060616860
:10562000E068884201D32068E0602846226CE16887
:10563000FAF77DFE70BD2DE9F04104460F46154690
:105640004FF00008A66B206C40B9206860BB606812
:1056500001F014FA80460020606025E07DB93946EB
:10566000226CA068FAF763FE216CA0680844A06071
:10567000D4E90110884217D32068A06014E03946AD
:10568000226CE068FAF753FE216CE068401AE06093
:105690002168E068884203D2216C6068401AE060AB
:1056A000022D01D106B1761E701CA0634046BDE8F4
:1056B000F08110B50446206B00F012FB204600F08C
:1056C0000FFB10BD30B54FF47053174800F00704BE
:1056D0002CB1C01D20F00700134C041B1B1B0246FD
:1056E000124C22600024114D6C60D018083820F054
:1056F00007000F4C206000240D4D2D686C600C4D90
:105700002D682C601146441A4C60094C24680C60CA
:10571000084D4C682C60084D4C682C604FF00044DC
:10572000064D2C6030BD0000800D00201C010020C3
:10573000240100202C01002028010020300100203D
:1057400000BFFFF731FF064800680128F9D94FF084
:10575000805004490860BFF34F8FBFF36F8FF0E7AD
:105760008049002004ED00E02DE9F04106460D4699
:1057700017469846069C0DB9246000E02760E66352
:1057800025640121204600F059FEBDE8F0812DE995
:10579000FF5F81460F469246DDE90E6B109CAAF131
:1057A0000100216B01EB800828F0070808F00700D2
:1057B00008B9012000E0002050B900BF502080F35C
:1057C0001188BFF34F8FBFF36F8F00BF00BFFEE79D
:1057D000002507E0795D04F134004155785D00B99A
:1057E00002E06D1C102DF5D300BF002143200155B0
:1057F000072E00D30626E66266640020A064201D02
:1058000000F0FDF904F1180000F0F9F92461C6F187
:105810000700A06164620020E06484F850004946FB
:105820004046039A00F0B4F92060BBF1000F01D0AC
:10583000CBF80040BDE8FF9F10B5002407E004EB63
:1058400084010F4A02EB810000F0CCF9641C072CA4
:10585000F5D30C4800F0C6F90B4800F0C3F90B482B
:1058600000F0C0F90A4800F0BDF90A4800F0BAF9A2
:1058700004480949086004480849086010BD000050
:10588000804900200C4A0020204A0020344A002091
:10589000484A00205C4A00204401002048010020C2
:1058A00010B50146164800E0006803688B42FBD340
:1058B0000246436813448B4204D143684C68234436
:1058C000436001460A464B6813440468A34211D161
:1058D0000C4C03682468A34208D04B6804686468D1
:1058E00023444B6003681B680B6005E0054B1B6895
:1058F0000B6001E003680B60884200D0016010BDBE
:105900001C0100202401002070B5054600F0A0F91C
:10591000A86B08B9012400E0002400F0C3F9204678
:1059200070BD70B5054600F093F9A86BE96B88422D
:1059300001D1012400E0002400F0B4F9204670BD3C
:105940000A490968096809B9012100E0002121B16B
:105950004FF0FF31064A116006E004490968C96842
:10596000C868034A41681160704700004401002084
:10597000700100200E480068401C08B9012000E0BA
:10598000002050B900BF502080F31188BFF34F8F23
:10599000BFF36F8F00BF00BFFEE700BF502080F352
:1059A0001188BFF34F8FBFF36F8F00BF00BFFEE7BB
:1059B0003401002070B5044600F04AF994F94550CE
:1059C00010E0606A08B9012000E0002038B904F155
:1059D000240001F0B7F818B100F046FA00E003E047
:1059E000681E45B2002DECDC00BFFF2084F84500A6
:1059F00000F058F900F02CF994F9445010E02069B7
:105A000008B9012000E0002048B904F1100001F0BD
:105A100099F808B100F028FA681E45B200E001E0EC
:105A2000002DECDC00BFFF2084F8440000F03AF9C0
:105A300070BD00002DE9F04104464FF0000800F071
:105A4000E9FA4648006808B9FFF73CFE4448006898
:105A5000204000286BD1D4B1083404F00700B0B165
:105A600004F00700C0F10800044404F0070008B97E
:105A7000012000E0002050B900BF502080F31188C1
:105A8000BFF34F8FBFF36F8F00BF00BFFEE7002C47
:105A90004DD034480068844249D8334E30460568BA
:105AA00001E02E462D686868A04202D228680028CE
:105AB000F7D12A480068854239D0306800F10808DB
:105AC000286830606868001B102819D92F1907F062
:105AD000070008B9012000E0002050B900BF5020A5
